{
  "_format": "hh-sol-artifact-1",
  "contractName": "TokenTimelock",
  "sourceName": "contracts/TokenTimelock.sol",
  "abi": [
    {
      "inputs": [
        {
          "internalType": "address",
          "name": "_token",
          "type": "address"
        }
      ],
      "stateMutability": "nonpayable",
      "type": "constructor"
    },
    {
      "anonymous": false,
      "inputs": [
        {
          "indexed": true,
          "internalType": "uint256",
          "name": "lockId",
          "type": "uint256"
        },
        {
          "indexed": true,
          "internalType": "address",
          "name": "beneficiary",
          "type": "address"
        },
        {
          "indexed": false,
          "internalType": "uint256",
          "name": "amount",
          "type": "uint256"
        },
        {
          "indexed": false,
          "internalType": "uint256",
          "name": "releaseTime",
          "type": "uint256"
        }
      ],
      "name": "LockCreated",
      "type": "event"
    },
    {
      "anonymous": false,
      "inputs": [
        {
          "indexed": true,
          "internalType": "uint256",
          "name": "lockId",
          "type": "uint256"
        },
        {
          "indexed": true,
          "internalType": "address",
          "name": "beneficiary",
          "type": "address"
        },
        {
          "indexed": false,
          "internalType": "uint256",
          "name": "amount",
          "type": "uint256"
        }
      ],
      "name": "LockReleased",
      "type": "event"
    },
    {
      "anonymous": false,
      "inputs": [
        {
          "indexed": true,
          "internalType": "uint256",
          "name": "lockId",
          "type": "uint256"
        },
        {
          "indexed": true,
          "internalType": "address",
          "name": "beneficiary",
          "type": "address"
        },
        {
          "indexed": false,
          "internalType": "uint256",
          "name": "amount",
          "type": "uint256"
        }
      ],
      "name": "LockRevoked",
      "type": "event"
    },
    {
      "anonymous": false,
      "inputs": [
        {
          "indexed": true,
          "internalType": "bytes32",
          "name": "role",
          "type": "bytes32"
        },
        {
          "indexed": true,
          "internalType": "bytes32",
          "name": "previousAdminRole",
          "type": "bytes32"
        },
        {
          "indexed": true,
          "internalType": "bytes32",
          "name": "newAdminRole",
          "type": "bytes32"
        }
      ],
      "name": "RoleAdminChanged",
      "type": "event"
    },
    {
      "anonymous": false,
      "inputs": [
        {
          "indexed": true,
          "internalType": "bytes32",
          "name": "role",
          "type": "bytes32"
        },
        {
          "indexed": true,
          "internalType": "address",
          "name": "account",
          "type": "address"
        },
        {
          "indexed": true,
          "internalType": "address",
          "name": "sender",
          "type": "address"
        }
      ],
      "name": "RoleGranted",
      "type": "event"
    },
    {
      "anonymous": false,
      "inputs": [
        {
          "indexed": true,
          "internalType": "bytes32",
          "name": "role",
          "type": "bytes32"
        },
        {
          "indexed": true,
          "internalType": "address",
          "name": "account",
          "type": "address"
        },
        {
          "indexed": true,
          "internalType": "address",
          "name": "sender",
          "type": "address"
        }
      ],
      "name": "RoleRevoked",
      "type": "event"
    },
    {
      "anonymous": false,
      "inputs": [
        {
          "indexed": true,
          "internalType": "uint256",
          "name": "vestingId",
          "type": "uint256"
        },
        {
          "indexed": true,
          "internalType": "address",
          "name": "beneficiary",
          "type": "address"
        },
        {
          "indexed": false,
          "internalType": "uint256",
          "name": "amount",
          "type": "uint256"
        }
      ],
      "name": "VestingClaimed",
      "type": "event"
    },
    {
      "anonymous": false,
      "inputs": [
        {
          "indexed": true,
          "internalType": "uint256",
          "name": "vestingId",
          "type": "uint256"
        },
        {
          "indexed": true,
          "internalType": "address",
          "name": "beneficiary",
          "type": "address"
        },
        {
          "indexed": false,
          "internalType": "uint256",
          "name": "totalAmount",
          "type": "uint256"
        },
        {
          "indexed": false,
          "internalType": "uint256",
          "name": "startTime",
          "type": "uint256"
        },
        {
          "indexed": false,
          "internalType": "uint256",
          "name": "duration",
          "type": "uint256"
        }
      ],
      "name": "VestingCreated",
      "type": "event"
    },
    {
      "anonymous": false,
      "inputs": [
        {
          "indexed": true,
          "internalType": "uint256",
          "name": "vestingId",
          "type": "uint256"
        },
        {
          "indexed": true,
          "internalType": "address",
          "name": "beneficiary",
          "type": "address"
        },
        {
          "indexed": false,
          "internalType": "uint256",
          "name": "remainingAmount",
          "type": "uint256"
        }
      ],
      "name": "VestingRevoked",
      "type": "event"
    },
    {
      "inputs": [],
      "name": "ADMIN_ROLE",
      "outputs": [
        {
          "internalType": "bytes32",
          "name": "",
          "type": "bytes32"
        }
      ],
      "stateMutability": "view",
      "type": "function"
    },
    {
      "inputs": [],
      "name": "DEFAULT_ADMIN_ROLE",
      "outputs": [
        {
          "internalType": "bytes32",
          "name": "",
          "type": "bytes32"
        }
      ],
      "stateMutability": "view",
      "type": "function"
    },
    {
      "inputs": [],
      "name": "OPERATOR_ROLE",
      "outputs": [
        {
          "internalType": "bytes32",
          "name": "",
          "type": "bytes32"
        }
      ],
      "stateMutability": "view",
      "type": "function"
    },
    {
      "inputs": [
        {
          "internalType": "address",
          "name": "",
          "type": "address"
        },
        {
          "internalType": "uint256",
          "name": "",
          "type": "uint256"
        }
      ],
      "name": "beneficiaryLocks",
      "outputs": [
        {
          "internalType": "uint256",
          "name": "",
          "type": "uint256"
        }
      ],
      "stateMutability": "view",
      "type": "function"
    },
    {
      "inputs": [
        {
          "internalType": "address",
          "name": "",
          "type": "address"
        },
        {
          "internalType": "uint256",
          "name": "",
          "type": "uint256"
        }
      ],
      "name": "beneficiaryVestings",
      "outputs": [
        {
          "internalType": "uint256",
          "name": "",
          "type": "uint256"
        }
      ],
      "stateMutability": "view",
      "type": "function"
    },
    {
      "inputs": [
        {
          "internalType": "uint256",
          "name": "vestingId",
          "type": "uint256"
        }
      ],
      "name": "claimVesting",
      "outputs": [],
      "stateMutability": "nonpayable",
      "type": "function"
    },
    {
      "inputs": [
        {
          "internalType": "address",
          "name": "beneficiary",
          "type": "address"
        },
        {
          "internalType": "uint256",
          "name": "amount",
          "type": "uint256"
        },
        {
          "internalType": "uint256",
          "name": "releaseTime",
          "type": "uint256"
        },
        {
          "internalType": "bool",
          "name": "isRevocable",
          "type": "bool"
        },
        {
          "internalType": "string",
          "name": "description",
          "type": "string"
        }
      ],
      "name": "createLock",
      "outputs": [],
      "stateMutability": "nonpayable",
      "type": "function"
    },
    {
      "inputs": [
        {
          "internalType": "address",
          "name": "beneficiary",
          "type": "address"
        },
        {
          "internalType": "uint256",
          "name": "totalAmount",
          "type": "uint256"
        },
        {
          "internalType": "uint256",
          "name": "startTime",
          "type": "uint256"
        },
        {
          "internalType": "uint256",
          "name": "duration",
          "type": "uint256"
        },
        {
          "internalType": "string",
          "name": "description",
          "type": "string"
        }
      ],
      "name": "createVestingSchedule",
      "outputs": [],
      "stateMutability": "nonpayable",
      "type": "function"
    },
    {
      "inputs": [
        {
          "internalType": "address",
          "name": "beneficiary",
          "type": "address"
        }
      ],
      "name": "getBeneficiaryLocks",
      "outputs": [
        {
          "internalType": "uint256[]",
          "name": "",
          "type": "uint256[]"
        }
      ],
      "stateMutability": "view",
      "type": "function"
    },
    {
      "inputs": [
        {
          "internalType": "address",
          "name": "beneficiary",
          "type": "address"
        }
      ],
      "name": "getBeneficiaryVestings",
      "outputs": [
        {
          "internalType": "uint256[]",
          "name": "",
          "type": "uint256[]"
        }
      ],
      "stateMutability": "view",
      "type": "function"
    },
    {
      "inputs": [
        {
          "internalType": "uint256",
          "name": "lockId",
          "type": "uint256"
        }
      ],
      "name": "getLock",
      "outputs": [
        {
          "components": [
            {
              "internalType": "uint256",
              "name": "id",
              "type": "uint256"
            },
            {
              "internalType": "address",
              "name": "beneficiary",
              "type": "address"
            },
            {
              "internalType": "uint256",
              "name": "amount",
              "type": "uint256"
            },
            {
              "internalType": "uint256",
              "name": "releaseTime",
              "type": "uint256"
            },
            {
              "internalType": "uint256",
              "name": "claimedAmount",
              "type": "uint256"
            },
            {
              "internalType": "bool",
              "name": "isRevocable",
              "type": "bool"
            },
            {
              "internalType": "bool",
              "name": "isRevoked",
              "type": "bool"
            },
            {
              "internalType": "string",
              "name": "description",
              "type": "string"
            },
            {
              "internalType": "uint256",
              "name": "createdAt",
              "type": "uint256"
            }
          ],
          "internalType": "struct TokenTimelock.Lock",
          "name": "",
          "type": "tuple"
        }
      ],
      "stateMutability": "view",
      "type": "function"
    },
    {
      "inputs": [
        {
          "internalType": "bytes32",
          "name": "role",
          "type": "bytes32"
        }
      ],
      "name": "getRoleAdmin",
      "outputs": [
        {
          "internalType": "bytes32",
          "name": "",
          "type": "bytes32"
        }
      ],
      "stateMutability": "view",
      "type": "function"
    },
    {
      "inputs": [],
      "name": "getTotalLockedAmount",
      "outputs": [
        {
          "internalType": "uint256",
          "name": "",
          "type": "uint256"
        }
      ],
      "stateMutability": "view",
      "type": "function"
    },
    {
      "inputs": [],
      "name": "getTotalVestingAmount",
      "outputs": [
        {
          "internalType": "uint256",
          "name": "",
          "type": "uint256"
        }
      ],
      "stateMutability": "view",
      "type": "function"
    },
    {
      "inputs": [
        {
          "internalType": "uint256",
          "name": "vestingId",
          "type": "uint256"
        }
      ],
      "name": "getVestingSchedule",
      "outputs": [
        {
          "components": [
            {
              "internalType": "uint256",
              "name": "id",
              "type": "uint256"
            },
            {
              "internalType": "address",
              "name": "beneficiary",
              "type": "address"
            },
            {
              "internalType": "uint256",
              "name": "totalAmount",
              "type": "uint256"
            },
            {
              "internalType": "uint256",
              "name": "startTime",
              "type": "uint256"
            },
            {
              "internalType": "uint256",
              "name": "duration",
              "type": "uint256"
            },
            {
              "internalType": "uint256",
              "name": "claimedAmount",
              "type": "uint256"
            },
            {
              "internalType": "bool",
              "name": "isActive",
              "type": "bool"
            },
            {
              "internalType": "string",
              "name": "description",
              "type": "string"
            },
            {
              "internalType": "uint256",
              "name": "createdAt",
              "type": "uint256"
            }
          ],
          "internalType": "struct TokenTimelock.VestingSchedule",
          "name": "",
          "type": "tuple"
        }
      ],
      "stateMutability": "view",
      "type": "function"
    },
    {
      "inputs": [
        {
          "internalType": "bytes32",
          "name": "role",
          "type": "bytes32"
        },
        {
          "internalType": "address",
          "name": "account",
          "type": "address"
        }
      ],
      "name": "grantRole",
      "outputs": [],
      "stateMutability": "nonpayable",
      "type": "function"
    },
    {
      "inputs": [
        {
          "internalType": "bytes32",
          "name": "role",
          "type": "bytes32"
        },
        {
          "internalType": "address",
          "name": "account",
          "type": "address"
        }
      ],
      "name": "hasRole",
      "outputs": [
        {
          "internalType": "bool",
          "name": "",
          "type": "bool"
        }
      ],
      "stateMutability": "view",
      "type": "function"
    },
    {
      "inputs": [
        {
          "internalType": "uint256",
          "name": "",
          "type": "uint256"
        }
      ],
      "name": "locks",
      "outputs": [
        {
          "internalType": "uint256",
          "name": "id",
          "type": "uint256"
        },
        {
          "internalType": "address",
          "name": "beneficiary",
          "type": "address"
        },
        {
          "internalType": "uint256",
          "name": "amount",
          "type": "uint256"
        },
        {
          "internalType": "uint256",
          "name": "releaseTime",
          "type": "uint256"
        },
        {
          "internalType": "uint256",
          "name": "claimedAmount",
          "type": "uint256"
        },
        {
          "internalType": "bool",
          "name": "isRevocable",
          "type": "bool"
        },
        {
          "internalType": "bool",
          "name": "isRevoked",
          "type": "bool"
        },
        {
          "internalType": "string",
          "name": "description",
          "type": "string"
        },
        {
          "internalType": "uint256",
          "name": "createdAt",
          "type": "uint256"
        }
      ],
      "stateMutability": "view",
      "type": "function"
    },
    {
      "inputs": [
        {
          "internalType": "uint256",
          "name": "lockId",
          "type": "uint256"
        }
      ],
      "name": "releaseLock",
      "outputs": [],
      "stateMutability": "nonpayable",
      "type": "function"
    },
    {
      "inputs": [
        {
          "internalType": "bytes32",
          "name": "role",
          "type": "bytes32"
        },
        {
          "internalType": "address",
          "name": "account",
          "type": "address"
        }
      ],
      "name": "renounceRole",
      "outputs": [],
      "stateMutability": "nonpayable",
      "type": "function"
    },
    {
      "inputs": [
        {
          "internalType": "uint256",
          "name": "lockId",
          "type": "uint256"
        }
      ],
      "name": "revokeLock",
      "outputs": [],
      "stateMutability": "nonpayable",
      "type": "function"
    },
    {
      "inputs": [
        {
          "internalType": "bytes32",
          "name": "role",
          "type": "bytes32"
        },
        {
          "internalType": "address",
          "name": "account",
          "type": "address"
        }
      ],
      "name": "revokeRole",
      "outputs": [],
      "stateMutability": "nonpayable",
      "type": "function"
    },
    {
      "inputs": [
        {
          "internalType": "uint256",
          "name": "vestingId",
          "type": "uint256"
        }
      ],
      "name": "revokeVesting",
      "outputs": [],
      "stateMutability": "nonpayable",
      "type": "function"
    },
    {
      "inputs": [
        {
          "internalType": "bytes4",
          "name": "interfaceId",
          "type": "bytes4"
        }
      ],
      "name": "supportsInterface",
      "outputs": [
        {
          "internalType": "bool",
          "name": "",
          "type": "bool"
        }
      ],
      "stateMutability": "view",
      "type": "function"
    },
    {
      "inputs": [],
      "name": "token",
      "outputs": [
        {
          "internalType": "contract IERC20",
          "name": "",
          "type": "address"
        }
      ],
      "stateMutability": "view",
      "type": "function"
    },
    {
      "inputs": [
        {
          "internalType": "uint256",
          "name": "",
          "type": "uint256"
        }
      ],
      "name": "vestingSchedules",
      "outputs": [
        {
          "internalType": "uint256",
          "name": "id",
          "type": "uint256"
        },
        {
          "internalType": "address",
          "name": "beneficiary",
          "type": "address"
        },
        {
          "internalType": "uint256",
          "name": "totalAmount",
          "type": "uint256"
        },
        {
          "internalType": "uint256",
          "name": "startTime",
          "type": "uint256"
        },
        {
          "internalType": "uint256",
          "name": "duration",
          "type": "uint256"
        },
        {
          "internalType": "uint256",
          "name": "claimedAmount",
          "type": "uint256"
        },
        {
          "internalType": "bool",
          "name": "isActive",
          "type": "bool"
        },
        {
          "internalType": "string",
          "name": "description",
          "type": "string"
        },
        {
          "internalType": "uint256",
          "name": "createdAt",
          "type": "uint256"
        }
      ],
      "stateMutability": "view",
      "type": "function"
    }
  ],
  "bytecode": "0x60a06040523480156200001157600080fd5b5060405162002fef38038062002fef8339810160408190526200003491620001a2565b60016000556001600160a01b038116620000a05760405162461bcd60e51b8152602060048201526024808201527f546f6b656e54696d656c6f636b3a20696e76616c696420746f6b656e206164646044820152637265737360e01b606482015260840160405180910390fd5b6001600160a01b038116608052620000ba60003362000119565b620000e67fa49807205ce4d355092ef5a8a18f56e8913cf4a201fbe287825b095693c217753362000119565b620001127f97667070c54ef182b0f5858b034beac1b6f3089aa2d3188bb1e8929f4fa9b9293362000119565b50620001d4565b60008281526001602090815260408083206001600160a01b038516845290915290205460ff166200019e5760008281526001602081815260408084206001600160a01b0386168086529252808420805460ff19169093179092559051339285917f2f8788117e7eff1d82e926ec794901d17c78024a50270940304540a733656f0d9190a45b5050565b600060208284031215620001b557600080fd5b81516001600160a01b0381168114620001cd57600080fd5b9392505050565b608051612db962000236600039600081816103ef015281816106d7015281816107850152818161094901528181610bc601528181610f5801528181611222015281816112d00152818161147e015281816116f80152611bf40152612db96000f3fe608060405234801561001057600080fd5b506004361061018e5760003560e01c806391d2b32e116100de578063d547741f11610097578063dd12820011610071578063dd12820014610388578063f4dadc611461039b578063f5b541a6146103c3578063fc0c546a146103ea57600080fd5b8063d547741f14610342578063d68f4dd114610355578063d815f5e01461037557600080fd5b806391d2b32e146102d9578063a217fddf146102e1578063a73b6ebe146102e9578063ac97b417146102fc578063beb8f8831461030f578063c710d9c41461032f57600080fd5b80634436fd251161014b57806375b238fc1161012557806375b238fc1461027e5780637b831ca4146102935780638df8123e146102b357806391d14854146102c657600080fd5b80634436fd2514610230578063629296ab146102435780636d3cbe211461025657600080fd5b806301ffc9a71461019357806310337bdd146101bb57806317a76955146101dc578063248a9ca3146101e45780632f2ff15d1461020857806336568abe1461021d575b600080fd5b6101a66101a13660046123e3565b610429565b60405190151581526020015b60405180910390f35b6101ce6101c9366004612429565b61043a565b6040519081526020016101b2565b6101ce61046b565b6101ce6101f2366004612453565b6000908152600160208190526040909120015490565b61021b61021636600461246c565b6104f7565b005b61021b61022b36600461246c565b610522565b61021b61023e366004612549565b6105a5565b61021b610251366004612453565b6109ca565b610269610264366004612453565b610c34565b6040516101b29998979695949392919061260d565b6101ce600080516020612d6483398151915281565b6102a66102a136600461266d565b610d18565b6040516101b29190612688565b61021b6102c1366004612453565b610d84565b6101a66102d436600461246c565b610fcc565b6101ce610ff7565b6101ce600081565b61021b6102f73660046126cc565b611083565b61021b61030a366004612453565b6114f1565b61032261031d366004612453565b611753565b6040516101b2919061271e565b6101ce61033d366004612429565b6118c4565b61021b61035036600461246c565b6118e0565b610368610363366004612453565b611906565b6040516101b291906127b0565b6102a661038336600461266d565b611a7f565b61021b610396366004612453565b611ae9565b6103ae6103a9366004612453565b611c5e565b6040516101b29998979695949392919061281c565b6101ce7f97667070c54ef182b0f5858b034beac1b6f3089aa2d3188bb1e8929f4fa9b92981565b6104117f000000000000000000000000000000000000000000000000000000000000000081565b6040516001600160a01b0390911681526020016101b2565b600061043482611d44565b92915050565b6006602052816000526040600020818154811061045657600080fd5b90600052602060002001600091509150505481565b60008060015b60035481116104f157600081815260056020526040902054158015906104a8575060008181526005602052604090206006015460ff165b156104df576000818152600560208190526040909120908101546002909101546104d2919061287c565b6104dc908361288f565b91505b806104e9816128a2565b915050610471565b50919050565b6000828152600160208190526040909120015461051381611d79565b61051d8383611d83565b505050565b6001600160a01b03811633146105975760405162461bcd60e51b815260206004820152602f60248201527f416363657373436f6e74726f6c3a2063616e206f6e6c792072656e6f756e636560448201526e103937b632b9903337b91039b2b63360891b60648201526084015b60405180910390fd5b6105a18282611dee565b5050565b6105bd600080516020612d6483398151915233610fcc565b806105ed57506105ed7f97667070c54ef182b0f5858b034beac1b6f3089aa2d3188bb1e8929f4fa9b92933610fcc565b6106095760405162461bcd60e51b815260040161058e906128bb565b610611611e55565b6001600160a01b0385166106375760405162461bcd60e51b815260040161058e90612901565b600084116106575760405162461bcd60e51b815260040161058e90612943565b4283116106c05760405162461bcd60e51b815260206004820152603160248201527f546f6b656e54696d656c6f636b3a2072656c656173652074696d65206d75737460448201527020626520696e207468652066757475726560781b606482015260840161058e565b6040516370a0823160e01b815233600482015284907f00000000000000000000000000000000000000000000000000000000000000006001600160a01b0316906370a0823190602401602060405180830381865afa158015610726573d6000803e3d6000fd5b505050506040513d601f19601f8201168201806040525081019061074a919061298f565b10156107685760405162461bcd60e51b815260040161058e906129a8565b604051636eb1769f60e11b815233600482015230602482015284907f00000000000000000000000000000000000000000000000000000000000000006001600160a01b03169063dd62ed3e90604401602060405180830381865afa1580156107d4573d6000803e3d6000fd5b505050506040513d601f19601f820116820180604052508101906107f8919061298f565b10156108165760405162461bcd60e51b815260040161058e906129eb565b610824600280546001019055565b600061082f60025490565b60408051610120810182528281526001600160a01b0389811660208084019182528385018b8152606085018b81526000608087018181528c151560a0890190815260c0890183815260e08a018e815242610100808d01919091528d86526004988990529b9094208a51815597516001890180546001600160a01b03191691909a1617909855935160028701559151600386015590519284019290925551600583018054945161ffff1990951691151561ff0019169190911793151590950292909217909355519293509160068201906109089082612ab2565b5061010091909101516007909101556001600160a01b03808716600090815260066020908152604082208054600181018255908352912001829055610971907f000000000000000000000000000000000000000000000000000000000000000016333088611eae565b60408051868152602081018690526001600160a01b0388169183917f1f0650dfb293ab82d4436fe83b01202a80a399c0ad904483e28ad3167a2b15fc91015b60405180910390a3506109c36001600055565b5050505050565b6109d2611e55565b60008181526004602052604081208054909103610a015760405162461bcd60e51b815260040161058e90612b72565b60018101546001600160a01b03163314610a715760405162461bcd60e51b815260206004820152602b60248201527f546f6b656e54696d656c6f636b3a206f6e6c792062656e65666963696172792060448201526a63616e2072656c6561736560a81b606482015260840161058e565b6005810154610100900460ff1615610acb5760405162461bcd60e51b815260206004820152601e60248201527f546f6b656e54696d656c6f636b3a206c6f636b206973207265766f6b65640000604482015260640161058e565b8060030154421015610b2e5760405162461bcd60e51b815260206004820152602660248201527f546f6b656e54696d656c6f636b3a206c6f636b206e6f74207965742072656c65604482015265617361626c6560d01b606482015260840161058e565b8060020154816004015410610b975760405162461bcd60e51b815260206004820152602960248201527f546f6b656e54696d656c6f636b3a206c6f636b20616c72656164792066756c6c6044820152681e4818db185a5b595960ba1b606482015260840161058e565b600081600401548260020154610bad919061287c565b600283015460048401559050610bed6001600160a01b037f0000000000000000000000000000000000000000000000000000000000000000163383611f1f565b604051818152339084907f574afd5cf1ca83d5d653d36d794b8c485e93e07633f130b15678d37622ce2541906020015b60405180910390a35050610c316001600055565b50565b60056020819052600091825260409091208054600182015460028301546003840154600485015495850154600686015460078701805496986001600160a01b03909616979496939594929360ff9092169291610c8f90612a30565b80601f0160208091040260200160405190810160405280929190818152602001828054610cbb90612a30565b8015610d085780601f10610cdd57610100808354040283529160200191610d08565b820191906000526020600020905b815481529060010190602001808311610ceb57829003601f168201915b5050505050908060080154905089565b6001600160a01b038116600090815260066020908152604091829020805483518184028101840190945280845260609392830182828015610d7857602002820191906000526020600020905b815481526020019060010190808311610d64575b50505050509050919050565b610d9c600080516020612d6483398151915233610fcc565b610db85760405162461bcd60e51b815260040161058e90612bb4565b600081815260046020526040812054829103610de65760405162461bcd60e51b815260040161058e90612b72565b6000828152600460205260409020600581015460ff16610e545760405162461bcd60e51b8152602060048201526024808201527f546f6b656e54696d656c6f636b3a206c6f636b206973206e6f74207265766f6360448201526361626c6560e01b606482015260840161058e565b6005810154610100900460ff1615610eba5760405162461bcd60e51b815260206004820152602360248201527f546f6b656e54696d656c6f636b3a206c6f636b20616c7265616479207265766f6044820152621ad95960ea1b606482015260840161058e565b80600301544210610f1c5760405162461bcd60e51b815260206004820152602660248201527f546f6b656e54696d656c6f636b3a206c6f636b20616c72656164792072656c65604482015265617361626c6560d01b606482015260840161058e565b60058101805461ff00191661010017905560048101546002820154600091610f439161287c565b90508015610f7f57610f7f6001600160a01b037f0000000000000000000000000000000000000000000000000000000000000000163383611f1f565b60018201546040518281526001600160a01b039091169085907f84e15a78574a4a571c455e19052b11e733c9793e14231bc13efc3ca819f88016906020015b60405180910390a350505050565b60009182526001602090815260408084206001600160a01b0393909316845291905290205460ff1690565b60008060015b60025481116104f1576000818152600460205260409020541580159061103a5750600081815260046020526040902060050154610100900460ff16155b1561107157600081815260046020819052604090912090810154600290910154611064919061287c565b61106e908361288f565b91505b8061107b816128a2565b915050610ffd565b61109b600080516020612d6483398151915233610fcc565b806110cb57506110cb7f97667070c54ef182b0f5858b034beac1b6f3089aa2d3188bb1e8929f4fa9b92933610fcc565b6110e75760405162461bcd60e51b815260040161058e906128bb565b6110ef611e55565b6001600160a01b0385166111155760405162461bcd60e51b815260040161058e90612901565b600084116111355760405162461bcd60e51b815260040161058e90612943565b428310156111a45760405162461bcd60e51b815260206004820152603660248201527f546f6b656e54696d656c6f636b3a2073746172742074696d65206d757374206260448201527565206e6f77206f7220696e207468652066757475726560501b606482015260840161058e565b6000821161120b5760405162461bcd60e51b815260206004820152602e60248201527f546f6b656e54696d656c6f636b3a206475726174696f6e206d7573742062652060448201526d067726561746572207468616e20360941b606482015260840161058e565b6040516370a0823160e01b815233600482015284907f00000000000000000000000000000000000000000000000000000000000000006001600160a01b0316906370a0823190602401602060405180830381865afa158015611271573d6000803e3d6000fd5b505050506040513d601f19601f82011682018060405250810190611295919061298f565b10156112b35760405162461bcd60e51b815260040161058e906129a8565b604051636eb1769f60e11b815233600482015230602482015284907f00000000000000000000000000000000000000000000000000000000000000006001600160a01b03169063dd62ed3e90604401602060405180830381865afa15801561131f573d6000803e3d6000fd5b505050506040513d601f19601f82011682018060405250810190611343919061298f565b10156113615760405162461bcd60e51b815260040161058e906129eb565b61136f600380546001019055565b600061137a60035490565b60408051610120810182528281526001600160a01b0389811660208084019182528385018b8152606085018b8152608086018b8152600060a08801818152600160c08a0181815260e08b018f8152426101008d01528d85526005988990529b9093208a518155975190880180546001600160a01b03191691909916179097559251600286015590516003850155516004840155925190820155905160068201805460ff1916911515919091179055915192935091600782019061143d9082612ab2565b5061010091909101516008909101556001600160a01b038087166000908152600760209081526040822080546001810182559083529120018290556114a6907f000000000000000000000000000000000000000000000000000000000000000016333088611eae565b60408051868152602081018690529081018490526001600160a01b0387169082907ffad9286b8a0c21fb92a92ecbf564a2091a54a2d2f65eb5ba126253eb6bb81594906060016109b0565b6114f9611e55565b600081815260056020526040812080549091036115285760405162461bcd60e51b815260040161058e90612bf7565b60018101546001600160a01b031633146115965760405162461bcd60e51b815260206004820152602960248201527f546f6b656e54696d656c6f636b3a206f6e6c792062656e65666963696172792060448201526863616e20636c61696d60b81b606482015260840161058e565b600681015460ff166115f65760405162461bcd60e51b8152602060048201526024808201527f546f6b656e54696d656c6f636b3a2076657374696e67206973206e6f742061636044820152637469766560e01b606482015260840161058e565b80600301544210156116595760405162461bcd60e51b815260206004820152602660248201527f546f6b656e54696d656c6f636b3a2076657374696e67206e6f742079657420736044820152651d185c9d195960d21b606482015260840161058e565b600061166482611f4f565b9050600081116116b65760405162461bcd60e51b815260206004820152601f60248201527f546f6b656e54696d656c6f636b3a206e6f7468696e6720746f20636c61696d00604482015260640161058e565b808260050160008282546116ca919061288f565b909155505060028201546005830154106116eb5760068201805460ff191690555b61171f6001600160a01b037f0000000000000000000000000000000000000000000000000000000000000000163383611f1f565b604051818152339084907f14a81f9a556dbd4b3ae8c924aef3cc382cb6f3c4b91e88201a1be8e8cf35932890602001610c1d565b6117ad6040518061012001604052806000815260200160006001600160a01b031681526020016000815260200160008152602001600081526020016000815260200160001515815260200160608152602001600081525090565b6000828152600560208181526040928390208351610120810185528154815260018201546001600160a01b03169281019290925260028101549382019390935260038301546060820152600483015460808201529082015460a0820152600682015460ff16151560c082015260078201805491929160e08401919061183190612a30565b80601f016020809104026020016040519081016040528092919081815260200182805461185d90612a30565b80156118aa5780601f1061187f576101008083540402835291602001916118aa565b820191906000526020600020905b81548152906001019060200180831161188d57829003601f168201915b505050505081526020016008820154815250509050919050565b6007602052816000526040600020818154811061045657600080fd5b600082815260016020819052604090912001546118fc81611d79565b61051d8383611dee565b6119626040518061012001604052806000815260200160006001600160a01b0316815260200160008152602001600081526020016000815260200160001515815260200160001515815260200160608152602001600081525090565b6000828152600460208181526040928390208351610120810185528154815260018201546001600160a01b03169281019290925260028101549382019390935260038301546060820152908201546080820152600582015460ff808216151560a084015261010090910416151560c082015260068201805491929160e0840191906119ec90612a30565b80601f0160208091040260200160405190810160405280929190818152602001828054611a1890612a30565b8015611a655780601f10611a3a57610100808354040283529160200191611a65565b820191906000526020600020905b815481529060010190602001808311611a4857829003601f168201915b505050505081526020016007820154815250509050919050565b6001600160a01b038116600090815260076020908152604091829020805483518184028101840190945280845260609392830182828015610d785760200282019190600052602060002090815481526020019060010190808311610d645750505050509050919050565b611b01600080516020612d6483398151915233610fcc565b611b1d5760405162461bcd60e51b815260040161058e90612bb4565b600081815260056020526040812054829103611b4b5760405162461bcd60e51b815260040161058e90612bf7565b6000828152600560205260409020600681015460ff16611bbd5760405162461bcd60e51b815260206004820152602760248201527f546f6b656e54696d656c6f636b3a2076657374696e6720616c726561647920696044820152666e61637469766560c81b606482015260840161058e565b60068101805460ff1916905560058101546002820154600091611bdf9161287c565b90508015611c1b57611c1b6001600160a01b037f0000000000000000000000000000000000000000000000000000000000000000163383611f1f565b60018201546040518281526001600160a01b039091169085907f740e00656bffeb4991e0c72cb99c21c504d644c1f90eaff0d75112260f58891790602001610fbe565b6004602081905260009182526040909120805460018201546002830154600384015494840154600585015460068601805495976001600160a01b03909516969395929360ff808416946101009094041692909190611cbb90612a30565b80601f0160208091040260200160405190810160405280929190818152602001828054611ce790612a30565b8015611d345780601f10611d0957610100808354040283529160200191611d34565b820191906000526020600020905b815481529060010190602001808311611d1757829003601f168201915b5050505050908060070154905089565b60006001600160e01b03198216637965db0b60e01b148061043457506301ffc9a760e01b6001600160e01b0319831614610434565b610c318133611fdd565b611d8d8282610fcc565b6105a15760008281526001602081815260408084206001600160a01b0386168086529252808420805460ff19169093179092559051339285917f2f8788117e7eff1d82e926ec794901d17c78024a50270940304540a733656f0d9190a45050565b611df88282610fcc565b156105a15760008281526001602090815260408083206001600160a01b0385168085529252808320805460ff1916905551339285917ff6391f5c32d9c69d2a47ea670b442974b53935d1edc7fd64eb21e047a839171b9190a45050565b600260005403611ea75760405162461bcd60e51b815260206004820152601f60248201527f5265656e7472616e637947756172643a207265656e7472616e742063616c6c00604482015260640161058e565b6002600055565b6040516001600160a01b0380851660248301528316604482015260648101829052611f199085906323b872dd60e01b906084015b60408051601f198184030181529190526020810180516001600160e01b03166001600160e01b031990931692909217909152612036565b50505050565b6040516001600160a01b03831660248201526044810182905261051d90849063a9059cbb60e01b90606401611ee2565b60008160030154421015611f6557506000919050565b6000826003015442611f77919061287c565b6004840154909150808210611fa25783600501548460020154611f9a919061287c565b949350505050565b600081838660020154611fb59190612c3c565b611fbf9190612c53565b90506000856005015482611fd3919061287c565b9695505050505050565b611fe78282610fcc565b6105a157611ff48161210b565b611fff83602061211d565b604051602001612010929190612c75565b60408051601f198184030181529082905262461bcd60e51b825261058e91600401612cea565b600061208b826040518060400160405280602081526020017f5361666545524332303a206c6f772d6c6576656c2063616c6c206661696c6564815250856001600160a01b03166122c09092919063ffffffff16565b90508051600014806120ac5750808060200190518101906120ac9190612cfd565b61051d5760405162461bcd60e51b815260206004820152602a60248201527f5361666545524332303a204552433230206f7065726174696f6e20646964206e6044820152691bdd081cdd58d8d9595960b21b606482015260840161058e565b60606104346001600160a01b03831660145b6060600061212c836002612c3c565b61213790600261288f565b67ffffffffffffffff81111561214f5761214f6124a6565b6040519080825280601f01601f191660200182016040528015612179576020820181803683370190505b509050600360fc1b8160008151811061219457612194612d1a565b60200101906001600160f81b031916908160001a905350600f60fb1b816001815181106121c3576121c3612d1a565b60200101906001600160f81b031916908160001a90535060006121e7846002612c3c565b6121f290600161288f565b90505b600181111561226a576f181899199a1a9b1b9c1cb0b131b232b360811b85600f166010811061222657612226612d1a565b1a60f81b82828151811061223c5761223c612d1a565b60200101906001600160f81b031916908160001a90535060049490941c9361226381612d30565b90506121f5565b5083156122b95760405162461bcd60e51b815260206004820181905260248201527f537472696e67733a20686578206c656e67746820696e73756666696369656e74604482015260640161058e565b9392505050565b6060611f9a848460008585600080866001600160a01b031685876040516122e79190612d47565b60006040518083038185875af1925050503d8060008114612324576040519150601f19603f3d011682016040523d82523d6000602084013e612329565b606091505b509150915061233a87838387612345565b979650505050505050565b606083156123b45782516000036123ad576001600160a01b0385163b6123ad5760405162461bcd60e51b815260206004820152601d60248201527f416464726573733a2063616c6c20746f206e6f6e2d636f6e7472616374000000604482015260640161058e565b5081611f9a565b611f9a83838151156123c95781518083602001fd5b8060405162461bcd60e51b815260040161058e9190612cea565b6000602082840312156123f557600080fd5b81356001600160e01b0319811681146122b957600080fd5b80356001600160a01b038116811461242457600080fd5b919050565b6000806040838503121561243c57600080fd5b6124458361240d565b946020939093013593505050565b60006020828403121561246557600080fd5b5035919050565b6000806040838503121561247f57600080fd5b8235915061248f6020840161240d565b90509250929050565b8015158114610c3157600080fd5b634e487b7160e01b600052604160045260246000fd5b600082601f8301126124cd57600080fd5b813567ffffffffffffffff808211156124e8576124e86124a6565b604051601f8301601f19908116603f01168101908282118183101715612510576125106124a6565b8160405283815286602085880101111561252957600080fd5b836020870160208301376000602085830101528094505050505092915050565b600080600080600060a0868803121561256157600080fd5b61256a8661240d565b94506020860135935060408601359250606086013561258881612498565b9150608086013567ffffffffffffffff8111156125a457600080fd5b6125b0888289016124bc565b9150509295509295909350565b60005b838110156125d85781810151838201526020016125c0565b50506000910152565b600081518084526125f98160208601602086016125bd565b601f01601f19169290920160200192915050565b60006101208b835260018060a01b038b1660208401528960408401528860608401528760808401528660a084015285151560c08401528060e0840152612655818401866125e1565b915050826101008301529a9950505050505050505050565b60006020828403121561267f57600080fd5b6122b98261240d565b6020808252825182820181905260009190848201906040850190845b818110156126c0578351835292840192918401916001016126a4565b50909695505050505050565b600080600080600060a086880312156126e457600080fd5b6126ed8661240d565b9450602086013593506040860135925060608601359150608086013567ffffffffffffffff8111156125a457600080fd5b60208152815160208201526000602083015161274560408401826001600160a01b03169052565b506040830151606083015260608301516080830152608083015160a083015260a083015160c083015260c083015161278160e084018215159052565b5060e083015161012061010081818601526127a06101408601846125e1565b9501519301929092525090919050565b6020815281516020820152600060208301516127d760408401826001600160a01b03169052565b506040830151606083015260608301516080830152608083015160a083015260a083015161280960c084018215159052565b5060c083015180151560e0840152612781565b60006101208b835260018060a01b038b16602084015289604084015288606084015287608084015286151560a084015285151560c08401528060e0840152612655818401866125e1565b634e487b7160e01b600052601160045260246000fd5b8181038181111561043457610434612866565b8082018082111561043457610434612866565b6000600182016128b4576128b4612866565b5060010190565b60208082526026908201527f546f6b656e54696d656c6f636b3a206d7573742068617665206f70657261746f6040820152657220726f6c6560d01b606082015260800190565b60208082526022908201527f546f6b656e54696d656c6f636b3a20696e76616c69642062656e656669636961604082015261727960f01b606082015260800190565b6020808252602c908201527f546f6b656e54696d656c6f636b3a20616d6f756e74206d75737420626520677260408201526b06561746572207468616e20360a41b606082015260800190565b6000602082840312156129a157600080fd5b5051919050565b60208082526023908201527f546f6b656e54696d656c6f636b3a20696e73756666696369656e742062616c616040820152626e636560e81b606082015260800190565b60208082526025908201527f546f6b656e54696d656c6f636b3a20696e73756666696369656e7420616c6c6f60408201526477616e636560d81b606082015260800190565b600181811c90821680612a4457607f821691505b6020821081036104f157634e487b7160e01b600052602260045260246000fd5b601f82111561051d57600081815260208120601f850160051c81016020861015612a8b5750805b601f850160051c820191505b81811015612aaa57828155600101612a97565b505050505050565b815167ffffffffffffffff811115612acc57612acc6124a6565b612ae081612ada8454612a30565b84612a64565b602080601f831160018114612b155760008415612afd5750858301515b600019600386901b1c1916600185901b178555612aaa565b600085815260208120601f198616915b82811015612b4457888601518255948401946001909101908401612b25565b5085821015612b625787850151600019600388901b60f8161c191681555b5050505050600190811b01905550565b60208082526022908201527f546f6b656e54696d656c6f636b3a206c6f636b20646f6573206e6f74206578696040820152611cdd60f21b606082015260800190565b60208082526023908201527f546f6b656e54696d656c6f636b3a206d75737420686176652061646d696e20726040820152626f6c6560e81b606082015260800190565b60208082526025908201527f546f6b656e54696d656c6f636b3a2076657374696e6720646f6573206e6f7420604082015264195e1a5cdd60da1b606082015260800190565b808202811582820484141761043457610434612866565b600082612c7057634e487b7160e01b600052601260045260246000fd5b500490565b7f416363657373436f6e74726f6c3a206163636f756e7420000000000000000000815260008351612cad8160178501602088016125bd565b7001034b99036b4b9b9b4b733903937b6329607d1b6017918401918201528351612cde8160288401602088016125bd565b01602801949350505050565b6020815260006122b960208301846125e1565b600060208284031215612d0f57600080fd5b81516122b981612498565b634e487b7160e01b600052603260045260246000fd5b600081612d3f57612d3f612866565b506000190190565b60008251612d598184602087016125bd565b919091019291505056fea49807205ce4d355092ef5a8a18f56e8913cf4a201fbe287825b095693c21775a26469706673582212202ef45ef3e7a9fd81067d2530fab38ad15741146af10d4acc4fe43a93419438fc64736f6c63430008140033",
  "linkReferences": {},
  "deployedLinkReferences": {}
}