{
  "_format": "hh-sol-artifact-1",
  "contractName": "TokenSplitter",
  "sourceName": "contracts/TokenSplitter.sol",
  "abi": [
    {
      "inputs": [
        {
          "internalType": "address",
          "name": "_token",
          "type": "address"
        }
      ],
      "stateMutability": "nonpayable",
      "type": "constructor"
    },
    {
      "anonymous": false,
      "inputs": [
        {
          "indexed": true,
          "internalType": "uint256",
          "name": "distributionId",
          "type": "uint256"
        },
        {
          "indexed": false,
          "internalType": "uint256",
          "name": "totalAmount",
          "type": "uint256"
        },
        {
          "indexed": false,
          "internalType": "uint256",
          "name": "recipientCount",
          "type": "uint256"
        }
      ],
      "name": "DistributionExecuted",
      "type": "event"
    },
    {
      "anonymous": false,
      "inputs": [
        {
          "indexed": false,
          "internalType": "bool",
          "name": "paused",
          "type": "bool"
        }
      ],
      "name": "DistributionPaused",
      "type": "event"
    },
    {
      "anonymous": false,
      "inputs": [
        {
          "indexed": false,
          "internalType": "uint256",
          "name": "oldAmount",
          "type": "uint256"
        },
        {
          "indexed": false,
          "internalType": "uint256",
          "name": "newAmount",
          "type": "uint256"
        }
      ],
      "name": "MinDistributionAmountUpdated",
      "type": "event"
    },
    {
      "anonymous": false,
      "inputs": [
        {
          "indexed": true,
          "internalType": "uint256",
          "name": "recipientId",
          "type": "uint256"
        },
        {
          "indexed": true,
          "internalType": "address",
          "name": "wallet",
          "type": "address"
        },
        {
          "indexed": false,
          "internalType": "uint256",
          "name": "percentage",
          "type": "uint256"
        },
        {
          "indexed": false,
          "internalType": "string",
          "name": "description",
          "type": "string"
        }
      ],
      "name": "RecipientAdded",
      "type": "event"
    },
    {
      "anonymous": false,
      "inputs": [
        {
          "indexed": true,
          "internalType": "uint256",
          "name": "distributionId",
          "type": "uint256"
        },
        {
          "indexed": true,
          "internalType": "uint256",
          "name": "recipientId",
          "type": "uint256"
        },
        {
          "indexed": true,
          "internalType": "address",
          "name": "wallet",
          "type": "address"
        },
        {
          "indexed": false,
          "internalType": "uint256",
          "name": "amount",
          "type": "uint256"
        }
      ],
      "name": "RecipientPaid",
      "type": "event"
    },
    {
      "anonymous": false,
      "inputs": [
        {
          "indexed": true,
          "internalType": "uint256",
          "name": "recipientId",
          "type": "uint256"
        },
        {
          "indexed": true,
          "internalType": "address",
          "name": "wallet",
          "type": "address"
        }
      ],
      "name": "RecipientRemoved",
      "type": "event"
    },
    {
      "anonymous": false,
      "inputs": [
        {
          "indexed": true,
          "internalType": "uint256",
          "name": "recipientId",
          "type": "uint256"
        },
        {
          "indexed": true,
          "internalType": "address",
          "name": "wallet",
          "type": "address"
        },
        {
          "indexed": false,
          "internalType": "uint256",
          "name": "percentage",
          "type": "uint256"
        },
        {
          "indexed": false,
          "internalType": "string",
          "name": "description",
          "type": "string"
        }
      ],
      "name": "RecipientUpdated",
      "type": "event"
    },
    {
      "anonymous": false,
      "inputs": [
        {
          "indexed": true,
          "internalType": "bytes32",
          "name": "role",
          "type": "bytes32"
        },
        {
          "indexed": true,
          "internalType": "bytes32",
          "name": "previousAdminRole",
          "type": "bytes32"
        },
        {
          "indexed": true,
          "internalType": "bytes32",
          "name": "newAdminRole",
          "type": "bytes32"
        }
      ],
      "name": "RoleAdminChanged",
      "type": "event"
    },
    {
      "anonymous": false,
      "inputs": [
        {
          "indexed": true,
          "internalType": "bytes32",
          "name": "role",
          "type": "bytes32"
        },
        {
          "indexed": true,
          "internalType": "address",
          "name": "account",
          "type": "address"
        },
        {
          "indexed": true,
          "internalType": "address",
          "name": "sender",
          "type": "address"
        }
      ],
      "name": "RoleGranted",
      "type": "event"
    },
    {
      "anonymous": false,
      "inputs": [
        {
          "indexed": true,
          "internalType": "bytes32",
          "name": "role",
          "type": "bytes32"
        },
        {
          "indexed": true,
          "internalType": "address",
          "name": "account",
          "type": "address"
        },
        {
          "indexed": true,
          "internalType": "address",
          "name": "sender",
          "type": "address"
        }
      ],
      "name": "RoleRevoked",
      "type": "event"
    },
    {
      "inputs": [],
      "name": "ADMIN_ROLE",
      "outputs": [
        {
          "internalType": "bytes32",
          "name": "",
          "type": "bytes32"
        }
      ],
      "stateMutability": "view",
      "type": "function"
    },
    {
      "inputs": [],
      "name": "DEFAULT_ADMIN_ROLE",
      "outputs": [
        {
          "internalType": "bytes32",
          "name": "",
          "type": "bytes32"
        }
      ],
      "stateMutability": "view",
      "type": "function"
    },
    {
      "inputs": [],
      "name": "OPERATOR_ROLE",
      "outputs": [
        {
          "internalType": "bytes32",
          "name": "",
          "type": "bytes32"
        }
      ],
      "stateMutability": "view",
      "type": "function"
    },
    {
      "inputs": [
        {
          "internalType": "address",
          "name": "wallet",
          "type": "address"
        },
        {
          "internalType": "uint256",
          "name": "percentage",
          "type": "uint256"
        },
        {
          "internalType": "string",
          "name": "description",
          "type": "string"
        }
      ],
      "name": "addRecipient",
      "outputs": [],
      "stateMutability": "nonpayable",
      "type": "function"
    },
    {
      "inputs": [
        {
          "internalType": "uint256",
          "name": "",
          "type": "uint256"
        },
        {
          "internalType": "uint256",
          "name": "",
          "type": "uint256"
        }
      ],
      "name": "distributionAmounts",
      "outputs": [
        {
          "internalType": "uint256",
          "name": "",
          "type": "uint256"
        }
      ],
      "stateMutability": "view",
      "type": "function"
    },
    {
      "inputs": [],
      "name": "distributionPaused",
      "outputs": [
        {
          "internalType": "bool",
          "name": "",
          "type": "bool"
        }
      ],
      "stateMutability": "view",
      "type": "function"
    },
    {
      "inputs": [
        {
          "internalType": "uint256",
          "name": "",
          "type": "uint256"
        }
      ],
      "name": "distributions",
      "outputs": [
        {
          "internalType": "uint256",
          "name": "id",
          "type": "uint256"
        },
        {
          "internalType": "uint256",
          "name": "totalAmount",
          "type": "uint256"
        },
        {
          "internalType": "uint256",
          "name": "timestamp",
          "type": "uint256"
        },
        {
          "internalType": "uint256",
          "name": "recipientCount",
          "type": "uint256"
        },
        {
          "internalType": "string",
          "name": "description",
          "type": "string"
        }
      ],
      "stateMutability": "view",
      "type": "function"
    },
    {
      "inputs": [
        {
          "internalType": "uint256",
          "name": "amount",
          "type": "uint256"
        },
        {
          "internalType": "string",
          "name": "description",
          "type": "string"
        }
      ],
      "name": "executeDistribution",
      "outputs": [],
      "stateMutability": "nonpayable",
      "type": "function"
    },
    {
      "inputs": [],
      "name": "getActiveRecipients",
      "outputs": [
        {
          "components": [
            {
              "internalType": "uint256",
              "name": "id",
              "type": "uint256"
            },
            {
              "internalType": "address",
              "name": "wallet",
              "type": "address"
            },
            {
              "internalType": "uint256",
              "name": "percentage",
              "type": "uint256"
            },
            {
              "internalType": "string",
              "name": "description",
              "type": "string"
            },
            {
              "internalType": "bool",
              "name": "isActive",
              "type": "bool"
            },
            {
              "internalType": "uint256",
              "name": "totalReceived",
              "type": "uint256"
            },
            {
              "internalType": "uint256",
              "name": "lastDistribution",
              "type": "uint256"
            }
          ],
          "internalType": "struct TokenSplitter.Recipient[]",
          "name": "",
          "type": "tuple[]"
        }
      ],
      "stateMutability": "view",
      "type": "function"
    },
    {
      "inputs": [
        {
          "internalType": "uint256",
          "name": "distributionId",
          "type": "uint256"
        }
      ],
      "name": "getDistribution",
      "outputs": [
        {
          "components": [
            {
              "internalType": "uint256",
              "name": "id",
              "type": "uint256"
            },
            {
              "internalType": "uint256",
              "name": "totalAmount",
              "type": "uint256"
            },
            {
              "internalType": "uint256",
              "name": "timestamp",
              "type": "uint256"
            },
            {
              "internalType": "uint256",
              "name": "recipientCount",
              "type": "uint256"
            },
            {
              "internalType": "string",
              "name": "description",
              "type": "string"
            }
          ],
          "internalType": "struct TokenSplitter.Distribution",
          "name": "",
          "type": "tuple"
        }
      ],
      "stateMutability": "view",
      "type": "function"
    },
    {
      "inputs": [
        {
          "internalType": "uint256",
          "name": "distributionId",
          "type": "uint256"
        },
        {
          "internalType": "uint256",
          "name": "recipientId",
          "type": "uint256"
        }
      ],
      "name": "getDistributionAmount",
      "outputs": [
        {
          "internalType": "uint256",
          "name": "",
          "type": "uint256"
        }
      ],
      "stateMutability": "view",
      "type": "function"
    },
    {
      "inputs": [
        {
          "internalType": "uint256",
          "name": "recipientId",
          "type": "uint256"
        }
      ],
      "name": "getRecipient",
      "outputs": [
        {
          "components": [
            {
              "internalType": "uint256",
              "name": "id",
              "type": "uint256"
            },
            {
              "internalType": "address",
              "name": "wallet",
              "type": "address"
            },
            {
              "internalType": "uint256",
              "name": "percentage",
              "type": "uint256"
            },
            {
              "internalType": "string",
              "name": "description",
              "type": "string"
            },
            {
              "internalType": "bool",
              "name": "isActive",
              "type": "bool"
            },
            {
              "internalType": "uint256",
              "name": "totalReceived",
              "type": "uint256"
            },
            {
              "internalType": "uint256",
              "name": "lastDistribution",
              "type": "uint256"
            }
          ],
          "internalType": "struct TokenSplitter.Recipient",
          "name": "",
          "type": "tuple"
        }
      ],
      "stateMutability": "view",
      "type": "function"
    },
    {
      "inputs": [
        {
          "internalType": "bytes32",
          "name": "role",
          "type": "bytes32"
        }
      ],
      "name": "getRoleAdmin",
      "outputs": [
        {
          "internalType": "bytes32",
          "name": "",
          "type": "bytes32"
        }
      ],
      "stateMutability": "view",
      "type": "function"
    },
    {
      "inputs": [],
      "name": "getTotalDistributions",
      "outputs": [
        {
          "internalType": "uint256",
          "name": "",
          "type": "uint256"
        }
      ],
      "stateMutability": "view",
      "type": "function"
    },
    {
      "inputs": [],
      "name": "getTotalRecipients",
      "outputs": [
        {
          "internalType": "uint256",
          "name": "",
          "type": "uint256"
        }
      ],
      "stateMutability": "view",
      "type": "function"
    },
    {
      "inputs": [
        {
          "internalType": "bytes32",
          "name": "role",
          "type": "bytes32"
        },
        {
          "internalType": "address",
          "name": "account",
          "type": "address"
        }
      ],
      "name": "grantRole",
      "outputs": [],
      "stateMutability": "nonpayable",
      "type": "function"
    },
    {
      "inputs": [
        {
          "internalType": "bytes32",
          "name": "role",
          "type": "bytes32"
        },
        {
          "internalType": "address",
          "name": "account",
          "type": "address"
        }
      ],
      "name": "hasRole",
      "outputs": [
        {
          "internalType": "bool",
          "name": "",
          "type": "bool"
        }
      ],
      "stateMutability": "view",
      "type": "function"
    },
    {
      "inputs": [],
      "name": "minDistributionAmount",
      "outputs": [
        {
          "internalType": "uint256",
          "name": "",
          "type": "uint256"
        }
      ],
      "stateMutability": "view",
      "type": "function"
    },
    {
      "inputs": [],
      "name": "pauseDistribution",
      "outputs": [],
      "stateMutability": "nonpayable",
      "type": "function"
    },
    {
      "inputs": [
        {
          "internalType": "uint256",
          "name": "",
          "type": "uint256"
        }
      ],
      "name": "recipients",
      "outputs": [
        {
          "internalType": "uint256",
          "name": "id",
          "type": "uint256"
        },
        {
          "internalType": "address",
          "name": "wallet",
          "type": "address"
        },
        {
          "internalType": "uint256",
          "name": "percentage",
          "type": "uint256"
        },
        {
          "internalType": "string",
          "name": "description",
          "type": "string"
        },
        {
          "internalType": "bool",
          "name": "isActive",
          "type": "bool"
        },
        {
          "internalType": "uint256",
          "name": "totalReceived",
          "type": "uint256"
        },
        {
          "internalType": "uint256",
          "name": "lastDistribution",
          "type": "uint256"
        }
      ],
      "stateMutability": "view",
      "type": "function"
    },
    {
      "inputs": [
        {
          "internalType": "uint256",
          "name": "recipientId",
          "type": "uint256"
        }
      ],
      "name": "removeRecipient",
      "outputs": [],
      "stateMutability": "nonpayable",
      "type": "function"
    },
    {
      "inputs": [
        {
          "internalType": "bytes32",
          "name": "role",
          "type": "bytes32"
        },
        {
          "internalType": "address",
          "name": "account",
          "type": "address"
        }
      ],
      "name": "renounceRole",
      "outputs": [],
      "stateMutability": "nonpayable",
      "type": "function"
    },
    {
      "inputs": [
        {
          "internalType": "bytes32",
          "name": "role",
          "type": "bytes32"
        },
        {
          "internalType": "address",
          "name": "account",
          "type": "address"
        }
      ],
      "name": "revokeRole",
      "outputs": [],
      "stateMutability": "nonpayable",
      "type": "function"
    },
    {
      "inputs": [
        {
          "internalType": "uint256",
          "name": "newAmount",
          "type": "uint256"
        }
      ],
      "name": "setMinDistributionAmount",
      "outputs": [],
      "stateMutability": "nonpayable",
      "type": "function"
    },
    {
      "inputs": [
        {
          "internalType": "bytes4",
          "name": "interfaceId",
          "type": "bytes4"
        }
      ],
      "name": "supportsInterface",
      "outputs": [
        {
          "internalType": "bool",
          "name": "",
          "type": "bool"
        }
      ],
      "stateMutability": "view",
      "type": "function"
    },
    {
      "inputs": [],
      "name": "token",
      "outputs": [
        {
          "internalType": "contract IERC20",
          "name": "",
          "type": "address"
        }
      ],
      "stateMutability": "view",
      "type": "function"
    },
    {
      "inputs": [],
      "name": "totalPercentage",
      "outputs": [
        {
          "internalType": "uint256",
          "name": "",
          "type": "uint256"
        }
      ],
      "stateMutability": "view",
      "type": "function"
    },
    {
      "inputs": [],
      "name": "unpauseDistribution",
      "outputs": [],
      "stateMutability": "nonpayable",
      "type": "function"
    },
    {
      "inputs": [
        {
          "internalType": "uint256",
          "name": "recipientId",
          "type": "uint256"
        },
        {
          "internalType": "address",
          "name": "wallet",
          "type": "address"
        },
        {
          "internalType": "uint256",
          "name": "percentage",
          "type": "uint256"
        },
        {
          "internalType": "string",
          "name": "description",
          "type": "string"
        }
      ],
      "name": "updateRecipient",
      "outputs": [],
      "stateMutability": "nonpayable",
      "type": "function"
    }
  ],
  "bytecode": "0x60a06040523480156200001157600080fd5b5060405162002acb38038062002acb8339810160408190526200003491620001af565b60016000556001600160a01b038116620000a05760405162461bcd60e51b8152602060048201526024808201527f546f6b656e53706c69747465723a20696e76616c696420746f6b656e206164646044820152637265737360e01b606482015260840160405180910390fd5b6001600160a01b038116608052620000ba60003362000126565b620000e67fa49807205ce4d355092ef5a8a18f56e8913cf4a201fbe287825b095693c217753362000126565b620001127f97667070c54ef182b0f5858b034beac1b6f3089aa2d3188bb1e8929f4fa9b9293362000126565b50683635c9adc5dea00000600855620001e1565b60008281526001602090815260408083206001600160a01b038516845290915290205460ff16620001ab5760008281526001602081815260408084206001600160a01b0386168086529252808420805460ff19169093179092559051339285917f2f8788117e7eff1d82e926ec794901d17c78024a50270940304540a733656f0d9190a45b5050565b600060208284031215620001c257600080fd5b81516001600160a01b0381168114620001da57600080fd5b9392505050565b6080516128ab620002206000396000818161042d015281816112810152818161136b015281816114470152818161156801526116b501526128ab6000f3fe608060405234801561001057600080fd5b50600436106101cf5760003560e01c80636d0cee7511610104578063a6ca3df7116100a2578063d547741f11610071578063d547741f146103ee578063f5b541a614610401578063fc0c546a14610428578063fc3488301461046757600080fd5b8063a6ca3df7146103a4578063b94ec9d0146103b7578063d1bc76a1146103bf578063d44a0e61146103e557600080fd5b80638e69e255116100de5780638e69e2551461036357806391d1485414610376578063a217fddf14610389578063a42f765b1461039157600080fd5b80636d0cee751461031b57806375b238fc1461033b5780638af09f501461035057600080fd5b806336568abe116101715780634912300d1161014b5780634912300d146102c65780634f107a89146102d35780635e6d4a64146102fe57806360f92a221461030657600080fd5b806336568abe1461026f5780633b345a87146102825780634487d3df146102a257600080fd5b8063248a9ca3116101ad578063248a9ca3146102285780632d30e6bf1461024c5780632f2ff15d1461025457806331cec7a31461026757600080fd5b806301ffc9a7146101d45780630a65fb21146101fc5780631871613b14610213575b600080fd5b6101e76101e2366004611f1d565b610492565b60405190151581526020015b60405180910390f35b61020560085481565b6040519081526020016101f3565b610226610221366004612006565b6104a3565b005b61020561023636600461205d565b6000908152600160208190526040909120015490565b6102056106b2565b610226610262366004612076565b6106c2565b6102266106ed565b61022661027d366004612076565b610767565b61029561029036600461205d565b6107e5565b6040516101f391906120f2565b6102b56102b036600461205d565b6108f6565b6040516101f3959493929190612135565b6009546101e79060ff1681565b6102056102e1366004612160565b600660209081526000928352604080842090915290825290205481565b6102056109af565b61030e6109ba565b6040516101f391906121e9565b61032e61032936600461205d565b610bcc565b6040516101f3919061224b565b61020560008051602061285683398151915281565b61022661035e36600461225e565b610cd7565b61022661037136600461205d565b610e7d565b6101e7610384366004612076565b610fbe565b610205600081565b61022661039f36600461205d565b610fe9565b6102266103b23660046122bf565b611082565b6102266116ea565b6103d26103cd36600461205d565b611759565b6040516101f39796959493929190612306565b61020560075481565b6102266103fc366004612076565b61182e565b6102057f97667070c54ef182b0f5858b034beac1b6f3089aa2d3188bb1e8929f4fa9b92981565b61044f7f000000000000000000000000000000000000000000000000000000000000000081565b6040516001600160a01b0390911681526020016101f3565b610205610475366004612160565b600091825260066020908152604080842092845291905290205490565b600061049d82611854565b92915050565b6104bb60008051602061285683398151915233610fbe565b6104e05760405162461bcd60e51b81526004016104d790612352565b60405180910390fd5b6001600160a01b0383166105065760405162461bcd60e51b81526004016104d790612395565b600082116105265760405162461bcd60e51b81526004016104d7906123da565b6127108211156105485760405162461bcd60e51b81526004016104d79061242a565b61271082600754610559919061248c565b11156105775760405162461bcd60e51b81526004016104d79061249f565b610585600280546001019055565b600061059060025490565b6040805160e0810182528281526001600160a01b03878116602080840191825283850189815260608501898152600160808701819052600060a0880181905260c0880181905289815260049094529690922085518155925195830180546001600160a01b0319169690941695909517909255925160028401555192935091600382019061061d9082612578565b50608082015160048201805460ff191691151591909117905560a0820151600582015560c0909101516006909101556007805484919060009061066190849061248c565b92505081905550836001600160a01b0316817fe501ede4036d18ff60b59175b2fb42bbd2ed89a9f9a0d7f71f43f02f508aca0285856040516106a4929190612638565b60405180910390a350505050565b60006106bd60025490565b905090565b600082815260016020819052604090912001546106de81611889565b6106e88383611896565b505050565b61070560008051602061285683398151915233610fbe565b6107215760405162461bcd60e51b81526004016104d790612352565b6009805460ff191660019081179091556040519081527f41cbf6951a9357698e34cd1b958ca104f937fcd0e1bee7b3c98552ad3b67394e906020015b60405180910390a1565b6001600160a01b03811633146107d75760405162461bcd60e51b815260206004820152602f60248201527f416363657373436f6e74726f6c3a2063616e206f6e6c792072656e6f756e636560448201526e103937b632b9903337b91039b2b63360891b60648201526084016104d7565b6107e18282611901565b5050565b6108176040518060a0016040528060008152602001600081526020016000815260200160008152602001606081525090565b600560008381526020019081526020016000206040518060a00160405290816000820154815260200160018201548152602001600282015481526020016003820154815260200160048201805461086d906124f0565b80601f0160208091040260200160405190810160405280929190818152602001828054610899906124f0565b80156108e65780601f106108bb576101008083540402835291602001916108e6565b820191906000526020600020905b8154815290600101906020018083116108c957829003601f168201915b5050505050815250509050919050565b60056020526000908152604090208054600182015460028301546003840154600485018054949593949293919261092c906124f0565b80601f0160208091040260200160405190810160405280929190818152602001828054610958906124f0565b80156109a55780601f1061097a576101008083540402835291602001916109a5565b820191906000526020600020905b81548152906001019060200180831161098857829003601f168201915b5050505050905085565b60006106bd60035490565b6060600060015b6002548111610a05576000818152600460208190526040909120015460ff16156109f357816109ef81612651565b9250505b806109fd81612651565b9150506109c1565b5060008167ffffffffffffffff811115610a2157610a21611f63565b604051908082528060200260200182016040528015610a5a57816020015b610a47611ed5565b815260200190600190039081610a3f5790505b509050600060015b6002548111610bc3576000818152600460208190526040909120015460ff1615610bb157600081815260046020908152604091829020825160e0810184528154815260018201546001600160a01b031692810192909252600281015492820192909252600382018054919291606084019190610add906124f0565b80601f0160208091040260200160405190810160405280929190818152602001828054610b09906124f0565b8015610b565780601f10610b2b57610100808354040283529160200191610b56565b820191906000526020600020905b815481529060010190602001808311610b3957829003601f168201915b5050509183525050600482015460ff1615156020820152600582015460408201526006909101546060909101528351849084908110610b9757610b9761266a565b60200260200101819052508180610bad90612651565b9250505b80610bbb81612651565b915050610a62565b50909392505050565b610bd4611ed5565b600082815260046020908152604091829020825160e0810184528154815260018201546001600160a01b031692810192909252600281015492820192909252600382018054919291606084019190610c2b906124f0565b80601f0160208091040260200160405190810160405280929190818152602001828054610c57906124f0565b8015610ca45780601f10610c7957610100808354040283529160200191610ca4565b820191906000526020600020905b815481529060010190602001808311610c8757829003601f168201915b5050509183525050600482015460ff16151560208201526005820154604082015260069091015460609091015292915050565b610cef60008051602061285683398151915233610fbe565b610d0b5760405162461bcd60e51b81526004016104d790612352565b600084815260046020526040812054859103610d395760405162461bcd60e51b81526004016104d790612680565b60008581526004602052604090206001600160a01b038516610d6d5760405162461bcd60e51b81526004016104d790612395565b60008411610d8d5760405162461bcd60e51b81526004016104d7906123da565b612710841115610daf5760405162461bcd60e51b81526004016104d79061242a565b60028101546007546000908690610dc79084906126c7565b610dd1919061248c565b9050612710811115610df55760405162461bcd60e51b81526004016104d79061249f565b6001830180546001600160a01b0319166001600160a01b0389161790556002830186905560038301610e278682612578565b5080600781905550866001600160a01b0316887ffd1b29896eb9b62c15c9064d63caba71b1e1c3a0d427c63fd31a2addc0af7bd58888604051610e6b929190612638565b60405180910390a35050505050505050565b610e9560008051602061285683398151915233610fbe565b610eb15760405162461bcd60e51b81526004016104d790612352565b600081815260046020526040812054829103610edf5760405162461bcd60e51b81526004016104d790612680565b60008281526004602081905260409091209081015460ff16610f555760405162461bcd60e51b815260206004820152602960248201527f546f6b656e53706c69747465723a20726563697069656e7420616c726561647960448201526820696e61637469766560b81b60648201526084016104d7565b60048101805460ff19169055600281015460078054600090610f789084906126c7565b909155505060018101546040516001600160a01b039091169084907fecce606d493a50ff1ae47308a82ebd732f5347e794d0d56687cd8fb686898edc90600090a3505050565b60009182526001602090815260408084206001600160a01b0393909316845291905290205460ff1690565b61100160008051602061285683398151915233610fbe565b61101d5760405162461bcd60e51b81526004016104d790612352565b6000811161103d5760405162461bcd60e51b81526004016104d7906126da565b600880549082905560408051828152602081018490527f3ed3c95bab7efd0ace27d48873faeb1b6e21aec077992bbe3c432c805bc5fae9910160405180910390a15050565b61109a60008051602061285683398151915233610fbe565b806110ca57506110ca7f97667070c54ef182b0f5858b034beac1b6f3089aa2d3188bb1e8929f4fa9b92933610fbe565b6111255760405162461bcd60e51b815260206004820152602660248201527f546f6b656e53706c69747465723a206d7573742068617665206f70657261746f6044820152657220726f6c6560d01b60648201526084016104d7565b60095460ff16156111865760405162461bcd60e51b815260206004820152602560248201527f546f6b656e53706c69747465723a20646973747269627574696f6e2069732070604482015264185d5cd95960da1b60648201526084016104d7565b61118e611968565b6008548210156111ec5760405162461bcd60e51b815260206004820152602360248201527f546f6b656e53706c69747465723a20616d6f756e742062656c6f77206d696e696044820152626d756d60e81b60648201526084016104d7565b6000821161120c5760405162461bcd60e51b81526004016104d7906126da565b60006007541161126a5760405162461bcd60e51b815260206004820152602360248201527f546f6b656e53706c69747465723a206e6f2061637469766520726563697069656044820152626e747360e81b60648201526084016104d7565b6040516370a0823160e01b815233600482015282907f00000000000000000000000000000000000000000000000000000000000000006001600160a01b0316906370a0823190602401602060405180830381865afa1580156112d0573d6000803e3d6000fd5b505050506040513d601f19601f820116820180604052508101906112f49190612726565b101561134e5760405162461bcd60e51b815260206004820152602360248201527f546f6b656e53706c69747465723a20696e73756666696369656e742062616c616044820152626e636560e81b60648201526084016104d7565b604051636eb1769f60e11b815233600482015230602482015282907f00000000000000000000000000000000000000000000000000000000000000006001600160a01b03169063dd62ed3e90604401602060405180830381865afa1580156113ba573d6000803e3d6000fd5b505050506040513d601f19601f820116820180604052508101906113de9190612726565b101561143a5760405162461bcd60e51b815260206004820152602560248201527f546f6b656e53706c69747465723a20696e73756666696369656e7420616c6c6f60448201526477616e636560d81b60648201526084016104d7565b61146f6001600160a01b037f0000000000000000000000000000000000000000000000000000000000000000163330856119c1565b61147d600380546001019055565b600061148860035490565b6040805160a081018252828152602080820187815242838501908152600060608501818152608086018a81528883526005909552958120855181559251600184015590516002830155935160038201559051939450919283929060048201906114f19082612578565b5060019150505b60025481116116435760008181526004602081905260409091209081015460ff168015611529575060008160020154115b15611630576000612710826002015489611543919061273f565b61154d9190612756565b9050801561162e576001820154611591906001600160a01b037f00000000000000000000000000000000000000000000000000000000000000008116911683611a32565b808260050160008282546115a5919061248c565b909155505042600680840191909155600087815260209182526040808220868352909252208190556115d7818561248c565b9350846115e381612651565b60018401546040518481529197506001600160a01b03169150849088907fac22bb2bfa25515144a6219622361d276075478999d0bd531de9804eec132a429060200160405180910390a45b505b508061163b81612651565b9150506114f8565b50600083815260056020908152604091829020600301849055815187815290810184905284917f2c988013bcf083db11a3d0a33d2067def6d912fff0dd12fc92e7c7c4fd22e388910160405180910390a260006116a082876126c7565b905080156116dc576116dc6001600160a01b037f0000000000000000000000000000000000000000000000000000000000000000163383611a32565b505050506107e16001600055565b61170260008051602061285683398151915233610fbe565b61171e5760405162461bcd60e51b81526004016104d790612352565b6009805460ff19169055604051600081527f41cbf6951a9357698e34cd1b958ca104f937fcd0e1bee7b3c98552ad3b67394e9060200161075d565b600460205260009081526040902080546001820154600283015460038401805493946001600160a01b0390931693919291611793906124f0565b80601f01602080910402602001604051908101604052809291908181526020018280546117bf906124f0565b801561180c5780601f106117e15761010080835404028352916020019161180c565b820191906000526020600020905b8154815290600101906020018083116117ef57829003601f168201915b5050505060048301546005840154600690940154929360ff9091169290915087565b6000828152600160208190526040909120015461184a81611889565b6106e88383611901565b60006001600160e01b03198216637965db0b60e01b148061049d57506301ffc9a760e01b6001600160e01b031983161461049d565b6118938133611a62565b50565b6118a08282610fbe565b6107e15760008281526001602081815260408084206001600160a01b0386168086529252808420805460ff19169093179092559051339285917f2f8788117e7eff1d82e926ec794901d17c78024a50270940304540a733656f0d9190a45050565b61190b8282610fbe565b156107e15760008281526001602090815260408083206001600160a01b0385168085529252808320805460ff1916905551339285917ff6391f5c32d9c69d2a47ea670b442974b53935d1edc7fd64eb21e047a839171b9190a45050565b6002600054036119ba5760405162461bcd60e51b815260206004820152601f60248201527f5265656e7472616e637947756172643a207265656e7472616e742063616c6c0060448201526064016104d7565b6002600055565b6040516001600160a01b0380851660248301528316604482015260648101829052611a2c9085906323b872dd60e01b906084015b60408051601f198184030181529190526020810180516001600160e01b03166001600160e01b031990931692909217909152611abb565b50505050565b6040516001600160a01b0383166024820152604481018290526106e890849063a9059cbb60e01b906064016119f5565b611a6c8282610fbe565b6107e157611a7981611b90565b611a84836020611ba2565b604051602001611a95929190612778565b60408051601f198184030181529082905262461bcd60e51b82526104d7916004016127ed565b6000611b10826040518060400160405280602081526020017f5361666545524332303a206c6f772d6c6576656c2063616c6c206661696c6564815250856001600160a01b0316611d459092919063ffffffff16565b9050805160001480611b31575080806020019051810190611b319190612800565b6106e85760405162461bcd60e51b815260206004820152602a60248201527f5361666545524332303a204552433230206f7065726174696f6e20646964206e6044820152691bdd081cdd58d8d9595960b21b60648201526084016104d7565b606061049d6001600160a01b03831660145b60606000611bb183600261273f565b611bbc90600261248c565b67ffffffffffffffff811115611bd457611bd4611f63565b6040519080825280601f01601f191660200182016040528015611bfe576020820181803683370190505b509050600360fc1b81600081518110611c1957611c1961266a565b60200101906001600160f81b031916908160001a905350600f60fb1b81600181518110611c4857611c4861266a565b60200101906001600160f81b031916908160001a9053506000611c6c84600261273f565b611c7790600161248c565b90505b6001811115611cef576f181899199a1a9b1b9c1cb0b131b232b360811b85600f1660108110611cab57611cab61266a565b1a60f81b828281518110611cc157611cc161266a565b60200101906001600160f81b031916908160001a90535060049490941c93611ce881612822565b9050611c7a565b508315611d3e5760405162461bcd60e51b815260206004820181905260248201527f537472696e67733a20686578206c656e67746820696e73756666696369656e7460448201526064016104d7565b9392505050565b6060611d548484600085611d5c565b949350505050565b606082471015611dbd5760405162461bcd60e51b815260206004820152602660248201527f416464726573733a20696e73756666696369656e742062616c616e636520666f6044820152651c8818d85b1b60d21b60648201526084016104d7565b600080866001600160a01b03168587604051611dd99190612839565b60006040518083038185875af1925050503d8060008114611e16576040519150601f19603f3d011682016040523d82523d6000602084013e611e1b565b606091505b5091509150611e2c87838387611e37565b979650505050505050565b60608315611ea6578251600003611e9f576001600160a01b0385163b611e9f5760405162461bcd60e51b815260206004820152601d60248201527f416464726573733a2063616c6c20746f206e6f6e2d636f6e747261637400000060448201526064016104d7565b5081611d54565b611d548383815115611ebb5781518083602001fd5b8060405162461bcd60e51b81526004016104d791906127ed565b6040518060e001604052806000815260200160006001600160a01b03168152602001600081526020016060815260200160001515815260200160008152602001600081525090565b600060208284031215611f2f57600080fd5b81356001600160e01b031981168114611d3e57600080fd5b80356001600160a01b0381168114611f5e57600080fd5b919050565b634e487b7160e01b600052604160045260246000fd5b600082601f830112611f8a57600080fd5b813567ffffffffffffffff80821115611fa557611fa5611f63565b604051601f8301601f19908116603f01168101908282118183101715611fcd57611fcd611f63565b81604052838152866020858801011115611fe657600080fd5b836020870160208301376000602085830101528094505050505092915050565b60008060006060848603121561201b57600080fd5b61202484611f47565b925060208401359150604084013567ffffffffffffffff81111561204757600080fd5b61205386828701611f79565b9150509250925092565b60006020828403121561206f57600080fd5b5035919050565b6000806040838503121561208957600080fd5b8235915061209960208401611f47565b90509250929050565b60005b838110156120bd5781810151838201526020016120a5565b50506000910152565b600081518084526120de8160208601602086016120a2565b601f01601f19169290920160200192915050565b60208152815160208201526020820151604082015260408201516060820152606082015160808201526000608083015160a080840152611d5460c08401826120c6565b85815284602082015283604082015282606082015260a060808201526000611e2c60a08301846120c6565b6000806040838503121561217357600080fd5b50508035926020909101359150565b8051825260018060a01b036020820151166020830152604081015160408301526000606082015160e060608501526121bd60e08501826120c6565b905060808301511515608085015260a083015160a085015260c083015160c08501528091505092915050565b6000602080830181845280855180835260408601915060408160051b870101925083870160005b8281101561223e57603f1988860301845261222c858351612182565b94509285019290850190600101612210565b5092979650505050505050565b602081526000611d3e6020830184612182565b6000806000806080858703121561227457600080fd5b8435935061228460208601611f47565b925060408501359150606085013567ffffffffffffffff8111156122a757600080fd5b6122b387828801611f79565b91505092959194509250565b600080604083850312156122d257600080fd5b82359150602083013567ffffffffffffffff8111156122f057600080fd5b6122fc85828601611f79565b9150509250929050565b87815260018060a01b038716602082015285604082015260e06060820152600061233360e08301876120c6565b94151560808301525060a081019290925260c090910152949350505050565b60208082526023908201527f546f6b656e53706c69747465723a206d75737420686176652061646d696e20726040820152626f6c6560e81b606082015260800190565b60208082526025908201527f546f6b656e53706c69747465723a20696e76616c69642077616c6c6574206164604082015264647265737360d81b606082015260800190565b60208082526030908201527f546f6b656e53706c69747465723a2070657263656e74616765206d757374206260408201526f0652067726561746572207468616e20360841b606082015260800190565b6020808252602c908201527f546f6b656e53706c69747465723a2070657263656e746167652063616e6e6f7460408201526b20657863656564203130302560a01b606082015260800190565b634e487b7160e01b600052601160045260246000fd5b8082018082111561049d5761049d612476565b60208082526031908201527f546f6b656e53706c69747465723a20746f74616c2070657263656e7461676520604082015270776f756c6420657863656564203130302560781b606082015260800190565b600181811c9082168061250457607f821691505b60208210810361252457634e487b7160e01b600052602260045260246000fd5b50919050565b601f8211156106e857600081815260208120601f850160051c810160208610156125515750805b601f850160051c820191505b818110156125705782815560010161255d565b505050505050565b815167ffffffffffffffff81111561259257612592611f63565b6125a6816125a084546124f0565b8461252a565b602080601f8311600181146125db57600084156125c35750858301515b600019600386901b1c1916600185901b178555612570565b600085815260208120601f198616915b8281101561260a578886015182559484019460019091019084016125eb565b50858210156126285787850151600019600388901b60f8161c191681555b5050505050600190811b01905550565b828152604060208201526000611d5460408301846120c6565b60006001820161266357612663612476565b5060010190565b634e487b7160e01b600052603260045260246000fd5b60208082526027908201527f546f6b656e53706c69747465723a20726563697069656e7420646f6573206e6f6040820152661d08195e1a5cdd60ca1b606082015260800190565b8181038181111561049d5761049d612476565b6020808252602c908201527f546f6b656e53706c69747465723a20616d6f756e74206d75737420626520677260408201526b06561746572207468616e20360a41b606082015260800190565b60006020828403121561273857600080fd5b5051919050565b808202811582820484141761049d5761049d612476565b60008261277357634e487b7160e01b600052601260045260246000fd5b500490565b7f416363657373436f6e74726f6c3a206163636f756e74200000000000000000008152600083516127b08160178501602088016120a2565b7001034b99036b4b9b9b4b733903937b6329607d1b60179184019182015283516127e18160288401602088016120a2565b01602801949350505050565b602081526000611d3e60208301846120c6565b60006020828403121561281257600080fd5b81518015158114611d3e57600080fd5b60008161283157612831612476565b506000190190565b6000825161284b8184602087016120a2565b919091019291505056fea49807205ce4d355092ef5a8a18f56e8913cf4a201fbe287825b095693c21775a2646970667358221220bfef23a937ca0aaed5803bf370e3fbddbf9a1ae2cc13143d16db4b9859859c7864736f6c63430008140033",
  "linkReferences": {},
  "deployedLinkReferences": {}
}