{
  "_format": "hh-sol-artifact-1",
  "contractName": "TokenBridge",
  "sourceName": "contracts/TokenBridge.sol",
  "abi": [
    {
      "inputs": [
        {
          "internalType": "address",
          "name": "_token",
          "type": "address"
        }
      ],
      "stateMutability": "nonpayable",
      "type": "constructor"
    },
    {
      "anonymous": false,
      "inputs": [
        {
          "indexed": true,
          "internalType": "uint256",
          "name": "requestId",
          "type": "uint256"
        },
        {
          "indexed": true,
          "internalType": "address",
          "name": "sender",
          "type": "address"
        },
        {
          "indexed": false,
          "internalType": "uint256[]",
          "name": "amounts",
          "type": "uint256[]"
        }
      ],
      "name": "BatchBridgeRequestCancelled",
      "type": "event"
    },
    {
      "anonymous": false,
      "inputs": [
        {
          "indexed": true,
          "internalType": "uint256",
          "name": "requestId",
          "type": "uint256"
        },
        {
          "indexed": true,
          "internalType": "address",
          "name": "sender",
          "type": "address"
        },
        {
          "indexed": false,
          "internalType": "uint256[]",
          "name": "amounts",
          "type": "uint256[]"
        },
        {
          "indexed": false,
          "internalType": "uint256",
          "name": "targetChainId",
          "type": "uint256"
        },
        {
          "indexed": false,
          "internalType": "address[]",
          "name": "recipients",
          "type": "address[]"
        }
      ],
      "name": "BatchBridgeRequestCreated",
      "type": "event"
    },
    {
      "anonymous": false,
      "inputs": [
        {
          "indexed": true,
          "internalType": "uint256",
          "name": "requestId",
          "type": "uint256"
        },
        {
          "indexed": true,
          "internalType": "address",
          "name": "sender",
          "type": "address"
        },
        {
          "indexed": false,
          "internalType": "uint256[]",
          "name": "amounts",
          "type": "uint256[]"
        },
        {
          "indexed": false,
          "internalType": "uint256",
          "name": "targetChainId",
          "type": "uint256"
        }
      ],
      "name": "BatchBridgeRequestProcessed",
      "type": "event"
    },
    {
      "anonymous": false,
      "inputs": [
        {
          "indexed": false,
          "internalType": "uint256",
          "name": "minAmount",
          "type": "uint256"
        },
        {
          "indexed": false,
          "internalType": "uint256",
          "name": "maxAmount",
          "type": "uint256"
        },
        {
          "indexed": false,
          "internalType": "uint256",
          "name": "fee",
          "type": "uint256"
        }
      ],
      "name": "BridgeConfigUpdated",
      "type": "event"
    },
    {
      "anonymous": false,
      "inputs": [
        {
          "indexed": true,
          "internalType": "uint256",
          "name": "requestId",
          "type": "uint256"
        },
        {
          "indexed": true,
          "internalType": "address",
          "name": "sender",
          "type": "address"
        },
        {
          "indexed": false,
          "internalType": "uint256",
          "name": "amount",
          "type": "uint256"
        }
      ],
      "name": "BridgeRequestCancelled",
      "type": "event"
    },
    {
      "anonymous": false,
      "inputs": [
        {
          "indexed": true,
          "internalType": "uint256",
          "name": "requestId",
          "type": "uint256"
        },
        {
          "indexed": true,
          "internalType": "address",
          "name": "sender",
          "type": "address"
        },
        {
          "indexed": false,
          "internalType": "uint256",
          "name": "amount",
          "type": "uint256"
        },
        {
          "indexed": false,
          "internalType": "uint256",
          "name": "targetChainId",
          "type": "uint256"
        },
        {
          "indexed": false,
          "internalType": "address",
          "name": "targetRecipient",
          "type": "address"
        }
      ],
      "name": "BridgeRequestCreated",
      "type": "event"
    },
    {
      "anonymous": false,
      "inputs": [
        {
          "indexed": true,
          "internalType": "uint256",
          "name": "requestId",
          "type": "uint256"
        },
        {
          "indexed": true,
          "internalType": "address",
          "name": "sender",
          "type": "address"
        },
        {
          "indexed": false,
          "internalType": "uint256",
          "name": "amount",
          "type": "uint256"
        },
        {
          "indexed": false,
          "internalType": "uint256",
          "name": "targetChainId",
          "type": "uint256"
        }
      ],
      "name": "BridgeRequestProcessed",
      "type": "event"
    },
    {
      "anonymous": false,
      "inputs": [
        {
          "indexed": false,
          "internalType": "uint256",
          "name": "chainId",
          "type": "uint256"
        },
        {
          "indexed": false,
          "internalType": "bool",
          "name": "supported",
          "type": "bool"
        }
      ],
      "name": "ChainSupported",
      "type": "event"
    },
    {
      "anonymous": false,
      "inputs": [
        {
          "indexed": true,
          "internalType": "string",
          "name": "contractType",
          "type": "string"
        },
        {
          "indexed": true,
          "internalType": "address",
          "name": "contractAddress",
          "type": "address"
        }
      ],
      "name": "ContractIntegrated",
      "type": "event"
    },
    {
      "anonymous": false,
      "inputs": [],
      "name": "EmergencyModeActivated",
      "type": "event"
    },
    {
      "anonymous": false,
      "inputs": [],
      "name": "EmergencyModeDeactivated",
      "type": "event"
    },
    {
      "anonymous": false,
      "inputs": [
        {
          "indexed": false,
          "internalType": "address",
          "name": "account",
          "type": "address"
        }
      ],
      "name": "Paused",
      "type": "event"
    },
    {
      "anonymous": false,
      "inputs": [
        {
          "indexed": true,
          "internalType": "bytes32",
          "name": "role",
          "type": "bytes32"
        },
        {
          "indexed": true,
          "internalType": "bytes32",
          "name": "previousAdminRole",
          "type": "bytes32"
        },
        {
          "indexed": true,
          "internalType": "bytes32",
          "name": "newAdminRole",
          "type": "bytes32"
        }
      ],
      "name": "RoleAdminChanged",
      "type": "event"
    },
    {
      "anonymous": false,
      "inputs": [
        {
          "indexed": true,
          "internalType": "bytes32",
          "name": "role",
          "type": "bytes32"
        },
        {
          "indexed": true,
          "internalType": "address",
          "name": "account",
          "type": "address"
        },
        {
          "indexed": true,
          "internalType": "address",
          "name": "sender",
          "type": "address"
        }
      ],
      "name": "RoleGranted",
      "type": "event"
    },
    {
      "anonymous": false,
      "inputs": [
        {
          "indexed": true,
          "internalType": "bytes32",
          "name": "role",
          "type": "bytes32"
        },
        {
          "indexed": true,
          "internalType": "address",
          "name": "account",
          "type": "address"
        },
        {
          "indexed": true,
          "internalType": "address",
          "name": "sender",
          "type": "address"
        }
      ],
      "name": "RoleRevoked",
      "type": "event"
    },
    {
      "anonymous": false,
      "inputs": [
        {
          "indexed": false,
          "internalType": "address",
          "name": "account",
          "type": "address"
        }
      ],
      "name": "Unpaused",
      "type": "event"
    },
    {
      "inputs": [],
      "name": "ADMIN_ROLE",
      "outputs": [
        {
          "internalType": "bytes32",
          "name": "",
          "type": "bytes32"
        }
      ],
      "stateMutability": "view",
      "type": "function"
    },
    {
      "inputs": [],
      "name": "DEFAULT_ADMIN_ROLE",
      "outputs": [
        {
          "internalType": "bytes32",
          "name": "",
          "type": "bytes32"
        }
      ],
      "stateMutability": "view",
      "type": "function"
    },
    {
      "inputs": [],
      "name": "EMERGENCY_ROLE",
      "outputs": [
        {
          "internalType": "bytes32",
          "name": "",
          "type": "bytes32"
        }
      ],
      "stateMutability": "view",
      "type": "function"
    },
    {
      "inputs": [],
      "name": "OPERATOR_ROLE",
      "outputs": [
        {
          "internalType": "bytes32",
          "name": "",
          "type": "bytes32"
        }
      ],
      "stateMutability": "view",
      "type": "function"
    },
    {
      "inputs": [],
      "name": "activateEmergencyMode",
      "outputs": [],
      "stateMutability": "nonpayable",
      "type": "function"
    },
    {
      "inputs": [
        {
          "internalType": "uint256",
          "name": "",
          "type": "uint256"
        }
      ],
      "name": "batchBridgeRequests",
      "outputs": [
        {
          "internalType": "uint256",
          "name": "id",
          "type": "uint256"
        },
        {
          "internalType": "address",
          "name": "sender",
          "type": "address"
        },
        {
          "internalType": "uint256",
          "name": "targetChainId",
          "type": "uint256"
        },
        {
          "internalType": "bool",
          "name": "isProcessed",
          "type": "bool"
        },
        {
          "internalType": "bool",
          "name": "isCancelled",
          "type": "bool"
        },
        {
          "internalType": "uint256",
          "name": "createdAt",
          "type": "uint256"
        },
        {
          "internalType": "uint256",
          "name": "processedAt",
          "type": "uint256"
        },
        {
          "internalType": "string",
          "name": "description",
          "type": "string"
        }
      ],
      "stateMutability": "view",
      "type": "function"
    },
    {
      "inputs": [],
      "name": "bridgeFee",
      "outputs": [
        {
          "internalType": "uint256",
          "name": "",
          "type": "uint256"
        }
      ],
      "stateMutability": "view",
      "type": "function"
    },
    {
      "inputs": [
        {
          "internalType": "uint256",
          "name": "",
          "type": "uint256"
        }
      ],
      "name": "bridgeRequests",
      "outputs": [
        {
          "internalType": "uint256",
          "name": "id",
          "type": "uint256"
        },
        {
          "internalType": "address",
          "name": "sender",
          "type": "address"
        },
        {
          "internalType": "uint256",
          "name": "amount",
          "type": "uint256"
        },
        {
          "internalType": "uint256",
          "name": "targetChainId",
          "type": "uint256"
        },
        {
          "internalType": "address",
          "name": "targetRecipient",
          "type": "address"
        },
        {
          "internalType": "bool",
          "name": "isProcessed",
          "type": "bool"
        },
        {
          "internalType": "bool",
          "name": "isCancelled",
          "type": "bool"
        },
        {
          "internalType": "uint256",
          "name": "createdAt",
          "type": "uint256"
        },
        {
          "internalType": "uint256",
          "name": "processedAt",
          "type": "uint256"
        },
        {
          "internalType": "string",
          "name": "description",
          "type": "string"
        }
      ],
      "stateMutability": "view",
      "type": "function"
    },
    {
      "inputs": [
        {
          "internalType": "uint256",
          "name": "requestId",
          "type": "uint256"
        }
      ],
      "name": "cancelBatchBridgeRequest",
      "outputs": [],
      "stateMutability": "nonpayable",
      "type": "function"
    },
    {
      "inputs": [
        {
          "internalType": "uint256",
          "name": "requestId",
          "type": "uint256"
        }
      ],
      "name": "cancelBridgeRequest",
      "outputs": [],
      "stateMutability": "nonpayable",
      "type": "function"
    },
    {
      "inputs": [
        {
          "internalType": "uint256[]",
          "name": "amounts",
          "type": "uint256[]"
        },
        {
          "internalType": "address[]",
          "name": "recipients",
          "type": "address[]"
        },
        {
          "internalType": "uint256",
          "name": "targetChainId",
          "type": "uint256"
        },
        {
          "internalType": "string",
          "name": "description",
          "type": "string"
        }
      ],
      "name": "createBatchBridgeRequest",
      "outputs": [],
      "stateMutability": "nonpayable",
      "type": "function"
    },
    {
      "inputs": [
        {
          "internalType": "uint256",
          "name": "amount",
          "type": "uint256"
        },
        {
          "internalType": "uint256",
          "name": "targetChainId",
          "type": "uint256"
        },
        {
          "internalType": "address",
          "name": "targetRecipient",
          "type": "address"
        },
        {
          "internalType": "string",
          "name": "description",
          "type": "string"
        }
      ],
      "name": "createBridgeRequest",
      "outputs": [],
      "stateMutability": "nonpayable",
      "type": "function"
    },
    {
      "inputs": [],
      "name": "deactivateEmergencyMode",
      "outputs": [],
      "stateMutability": "nonpayable",
      "type": "function"
    },
    {
      "inputs": [],
      "name": "emergencyMode",
      "outputs": [
        {
          "internalType": "bool",
          "name": "",
          "type": "bool"
        }
      ],
      "stateMutability": "view",
      "type": "function"
    },
    {
      "inputs": [],
      "name": "feeDenominator",
      "outputs": [
        {
          "internalType": "uint256",
          "name": "",
          "type": "uint256"
        }
      ],
      "stateMutability": "view",
      "type": "function"
    },
    {
      "inputs": [
        {
          "internalType": "uint256",
          "name": "requestId",
          "type": "uint256"
        }
      ],
      "name": "getBatchBridgeRequest",
      "outputs": [
        {
          "components": [
            {
              "internalType": "uint256",
              "name": "id",
              "type": "uint256"
            },
            {
              "internalType": "address",
              "name": "sender",
              "type": "address"
            },
            {
              "internalType": "uint256[]",
              "name": "amounts",
              "type": "uint256[]"
            },
            {
              "internalType": "address[]",
              "name": "recipients",
              "type": "address[]"
            },
            {
              "internalType": "uint256",
              "name": "targetChainId",
              "type": "uint256"
            },
            {
              "internalType": "bool",
              "name": "isProcessed",
              "type": "bool"
            },
            {
              "internalType": "bool",
              "name": "isCancelled",
              "type": "bool"
            },
            {
              "internalType": "uint256",
              "name": "createdAt",
              "type": "uint256"
            },
            {
              "internalType": "uint256",
              "name": "processedAt",
              "type": "uint256"
            },
            {
              "internalType": "string",
              "name": "description",
              "type": "string"
            }
          ],
          "internalType": "struct TokenBridge.BatchBridgeRequest",
          "name": "",
          "type": "tuple"
        }
      ],
      "stateMutability": "view",
      "type": "function"
    },
    {
      "inputs": [
        {
          "internalType": "uint256",
          "name": "requestId",
          "type": "uint256"
        }
      ],
      "name": "getBridgeRequest",
      "outputs": [
        {
          "components": [
            {
              "internalType": "uint256",
              "name": "id",
              "type": "uint256"
            },
            {
              "internalType": "address",
              "name": "sender",
              "type": "address"
            },
            {
              "internalType": "uint256",
              "name": "amount",
              "type": "uint256"
            },
            {
              "internalType": "uint256",
              "name": "targetChainId",
              "type": "uint256"
            },
            {
              "internalType": "address",
              "name": "targetRecipient",
              "type": "address"
            },
            {
              "internalType": "bool",
              "name": "isProcessed",
              "type": "bool"
            },
            {
              "internalType": "bool",
              "name": "isCancelled",
              "type": "bool"
            },
            {
              "internalType": "uint256",
              "name": "createdAt",
              "type": "uint256"
            },
            {
              "internalType": "uint256",
              "name": "processedAt",
              "type": "uint256"
            },
            {
              "internalType": "string",
              "name": "description",
              "type": "string"
            }
          ],
          "internalType": "struct TokenBridge.BridgeRequest",
          "name": "",
          "type": "tuple"
        }
      ],
      "stateMutability": "view",
      "type": "function"
    },
    {
      "inputs": [
        {
          "internalType": "bytes32",
          "name": "role",
          "type": "bytes32"
        }
      ],
      "name": "getRoleAdmin",
      "outputs": [
        {
          "internalType": "bytes32",
          "name": "",
          "type": "bytes32"
        }
      ],
      "stateMutability": "view",
      "type": "function"
    },
    {
      "inputs": [],
      "name": "getTotalBatchBridgeRequests",
      "outputs": [
        {
          "internalType": "uint256",
          "name": "",
          "type": "uint256"
        }
      ],
      "stateMutability": "view",
      "type": "function"
    },
    {
      "inputs": [],
      "name": "getTotalBridgeRequests",
      "outputs": [
        {
          "internalType": "uint256",
          "name": "",
          "type": "uint256"
        }
      ],
      "stateMutability": "view",
      "type": "function"
    },
    {
      "inputs": [],
      "name": "getTotalLockedInBridge",
      "outputs": [
        {
          "internalType": "uint256",
          "name": "",
          "type": "uint256"
        }
      ],
      "stateMutability": "view",
      "type": "function"
    },
    {
      "inputs": [
        {
          "internalType": "address",
          "name": "user",
          "type": "address"
        }
      ],
      "name": "getUserBatchBridgeRequests",
      "outputs": [
        {
          "internalType": "uint256[]",
          "name": "",
          "type": "uint256[]"
        }
      ],
      "stateMutability": "view",
      "type": "function"
    },
    {
      "inputs": [
        {
          "internalType": "address",
          "name": "user",
          "type": "address"
        }
      ],
      "name": "getUserBridgeRequests",
      "outputs": [
        {
          "internalType": "uint256[]",
          "name": "",
          "type": "uint256[]"
        }
      ],
      "stateMutability": "view",
      "type": "function"
    },
    {
      "inputs": [
        {
          "internalType": "bytes32",
          "name": "role",
          "type": "bytes32"
        },
        {
          "internalType": "address",
          "name": "account",
          "type": "address"
        }
      ],
      "name": "grantRole",
      "outputs": [],
      "stateMutability": "nonpayable",
      "type": "function"
    },
    {
      "inputs": [
        {
          "internalType": "bytes32",
          "name": "role",
          "type": "bytes32"
        },
        {
          "internalType": "address",
          "name": "account",
          "type": "address"
        }
      ],
      "name": "hasRole",
      "outputs": [
        {
          "internalType": "bool",
          "name": "",
          "type": "bool"
        }
      ],
      "stateMutability": "view",
      "type": "function"
    },
    {
      "inputs": [
        {
          "internalType": "address",
          "name": "contractAddress",
          "type": "address"
        },
        {
          "internalType": "string",
          "name": "contractType",
          "type": "string"
        }
      ],
      "name": "integrateContract",
      "outputs": [],
      "stateMutability": "nonpayable",
      "type": "function"
    },
    {
      "inputs": [],
      "name": "lockManager",
      "outputs": [
        {
          "internalType": "address",
          "name": "",
          "type": "address"
        }
      ],
      "stateMutability": "view",
      "type": "function"
    },
    {
      "inputs": [],
      "name": "maxBridgeAmount",
      "outputs": [
        {
          "internalType": "uint256",
          "name": "",
          "type": "uint256"
        }
      ],
      "stateMutability": "view",
      "type": "function"
    },
    {
      "inputs": [],
      "name": "minBridgeAmount",
      "outputs": [
        {
          "internalType": "uint256",
          "name": "",
          "type": "uint256"
        }
      ],
      "stateMutability": "view",
      "type": "function"
    },
    {
      "inputs": [],
      "name": "pause",
      "outputs": [],
      "stateMutability": "nonpayable",
      "type": "function"
    },
    {
      "inputs": [],
      "name": "paused",
      "outputs": [
        {
          "internalType": "bool",
          "name": "",
          "type": "bool"
        }
      ],
      "stateMutability": "view",
      "type": "function"
    },
    {
      "inputs": [
        {
          "internalType": "uint256",
          "name": "requestId",
          "type": "uint256"
        }
      ],
      "name": "processBatchBridgeRequest",
      "outputs": [],
      "stateMutability": "nonpayable",
      "type": "function"
    },
    {
      "inputs": [
        {
          "internalType": "uint256",
          "name": "requestId",
          "type": "uint256"
        }
      ],
      "name": "processBridgeRequest",
      "outputs": [],
      "stateMutability": "nonpayable",
      "type": "function"
    },
    {
      "inputs": [
        {
          "internalType": "bytes32",
          "name": "role",
          "type": "bytes32"
        },
        {
          "internalType": "address",
          "name": "account",
          "type": "address"
        }
      ],
      "name": "renounceRole",
      "outputs": [],
      "stateMutability": "nonpayable",
      "type": "function"
    },
    {
      "inputs": [
        {
          "internalType": "bytes32",
          "name": "role",
          "type": "bytes32"
        },
        {
          "internalType": "address",
          "name": "account",
          "type": "address"
        }
      ],
      "name": "revokeRole",
      "outputs": [],
      "stateMutability": "nonpayable",
      "type": "function"
    },
    {
      "inputs": [
        {
          "internalType": "uint256",
          "name": "chainId",
          "type": "uint256"
        },
        {
          "internalType": "bool",
          "name": "supported",
          "type": "bool"
        }
      ],
      "name": "setChainSupport",
      "outputs": [],
      "stateMutability": "nonpayable",
      "type": "function"
    },
    {
      "inputs": [
        {
          "internalType": "uint256",
          "name": "",
          "type": "uint256"
        }
      ],
      "name": "supportedChainIds",
      "outputs": [
        {
          "internalType": "bool",
          "name": "",
          "type": "bool"
        }
      ],
      "stateMutability": "view",
      "type": "function"
    },
    {
      "inputs": [
        {
          "internalType": "bytes4",
          "name": "interfaceId",
          "type": "bytes4"
        }
      ],
      "name": "supportsInterface",
      "outputs": [
        {
          "internalType": "bool",
          "name": "",
          "type": "bool"
        }
      ],
      "stateMutability": "view",
      "type": "function"
    },
    {
      "inputs": [],
      "name": "token",
      "outputs": [
        {
          "internalType": "contract IERC20",
          "name": "",
          "type": "address"
        }
      ],
      "stateMutability": "view",
      "type": "function"
    },
    {
      "inputs": [],
      "name": "tokenTimelock",
      "outputs": [
        {
          "internalType": "address",
          "name": "",
          "type": "address"
        }
      ],
      "stateMutability": "view",
      "type": "function"
    },
    {
      "inputs": [],
      "name": "unpause",
      "outputs": [],
      "stateMutability": "nonpayable",
      "type": "function"
    },
    {
      "inputs": [
        {
          "internalType": "uint256",
          "name": "_minAmount",
          "type": "uint256"
        },
        {
          "internalType": "uint256",
          "name": "_maxAmount",
          "type": "uint256"
        },
        {
          "internalType": "uint256",
          "name": "_fee",
          "type": "uint256"
        }
      ],
      "name": "updateBridgeConfig",
      "outputs": [],
      "stateMutability": "nonpayable",
      "type": "function"
    },
    {
      "inputs": [
        {
          "internalType": "address",
          "name": "",
          "type": "address"
        },
        {
          "internalType": "uint256",
          "name": "",
          "type": "uint256"
        }
      ],
      "name": "userBatchBridgeRequests",
      "outputs": [
        {
          "internalType": "uint256",
          "name": "",
          "type": "uint256"
        }
      ],
      "stateMutability": "view",
      "type": "function"
    },
    {
      "inputs": [
        {
          "internalType": "address",
          "name": "",
          "type": "address"
        },
        {
          "internalType": "uint256",
          "name": "",
          "type": "uint256"
        }
      ],
      "name": "userBridgeRequests",
      "outputs": [
        {
          "internalType": "uint256",
          "name": "",
          "type": "uint256"
        }
      ],
      "stateMutability": "view",
      "type": "function"
    }
  ],
  "bytecode": "0x60a06040523480156200001157600080fd5b50604051620040a3380380620040a3833981016040819052620000349162000262565b60016000556002805460ff191690556001600160a01b038116620000a95760405162461bcd60e51b815260206004820152602260248201527f546f6b656e4272696467653a20696e76616c696420746f6b656e206164647265604482015261737360f01b606482015260840160405180910390fd5b6001600160a01b038116608052620000c3600033620001d9565b620000ef7fa49807205ce4d355092ef5a8a18f56e8913cf4a201fbe287825b095693c2177533620001d9565b6200011b7f97667070c54ef182b0f5858b034beac1b6f3089aa2d3188bb1e8929f4fa9b92933620001d9565b620001477fbf233dd2aafeb4d50879c4aa5c81e96d92f6e6945c906a58f9f2d1c1631b4b2633620001d9565b5068056bc75e2d63100000600a5569d3c21bcecceda1000000600b556019600c55612710600d5560096020527f35cbfc6cecf8f6a20f9ae56f6b797d21d83573be46cd67af485c361e5b9e38898054600160ff19918216811790925560616000527ffbd509f939c2f75dc2afe4209fdd733acf55ee588acc617261f3d5ed6f5d709f8054909116909117905562000294565b60008281526001602090815260408083206001600160a01b038516845290915290205460ff166200025e5760008281526001602081815260408084206001600160a01b0386168086529252808420805460ff19169093179092559051339285917f2f8788117e7eff1d82e926ec794901d17c78024a50270940304540a733656f0d9190a45b5050565b6000602082840312156200027557600080fd5b81516001600160a01b03811681146200028d57600080fd5b9392505050565b608051613dbb620002e8600039600081816105ec01528181610c1601528181610f4d01528181610ffb0152818161122701528181611d7b01528181611e290152818161208001526124f70152613dbb6000f3fe608060405234801561001057600080fd5b50600436106102745760003560e01c8063945b355811610151578063d0096010116100c3578063e45fc5ac11610087578063e45fc5ac14610573578063ec93dee31461059a578063eecfb153146105ad578063f5b541a6146105c0578063fc0c546a146105e7578063fe92cdd51461060e57600080fd5b8063d00960101461052a578063d547741f14610532578063d6243ac914610545578063df3febaf1461054d578063df4f026b1461056057600080fd5b8063a217fddf11610115578063a217fddf146104b0578063abdb775b146104b8578063acca30a2146104cb578063b26018e0146104fb578063bba525161461050e578063c3c224751461052157600080fd5b8063945b35581461045c57806397d8b17a1461046f57806399b20eaf146104775780639c7d12351461047f5780639f89c8a21461048757600080fd5b80633f4ba83a116101ea578063745cf1bf116101ae578063745cf1bf146103f057806375b238fc146104105780637e28fd271461042557806382b12dd7146104385780638456cb591461044157806391d148541461044957600080fd5b80633f4ba83a1461039e5780634cf2ab32146103a65780635c975abb146103c957806360132c9c146103d45780636eaddc33146103dd57600080fd5b806320df43591161023c57806320df4359146102fa578063248a9ca3146103215780632bdf4e6c146103455780632f2ff15d146103585780633008afed1461036b57806336568abe1461038b57600080fd5b806301ffc9a71461027957806304cb4292146102a15780630905f560146102c157806313c7681d146102ce578063180b0d7e146102e3575b600080fd5b61028c610287366004612f9f565b610621565b60405190151581526020015b60405180910390f35b6102b46102af366004612fe5565b610632565b6040516102989190613000565b600e5461028c9060ff1681565b6102e16102dc366004613044565b61069e565b005b6102ec600d5481565b604051908152602001610298565b6102ec7fbf233dd2aafeb4d50879c4aa5c81e96d92f6e6945c906a58f9f2d1c1631b4b2681565b6102ec61032f366004613044565b6000908152600160208190526040909120015490565b6102ec61035336600461305d565b6107f6565b6102e1610366366004613087565b610827565b61037e610379366004613044565b610852565b6040516102989190613103565b6102e1610399366004613087565b6109ee565b6102e1610a6c565b61028c6103b4366004613044565b60096020526000908152604090205460ff1681565b60025460ff1661028c565b6102ec600b5481565b6102e16103eb366004613044565b610aaa565b6104036103fe366004613044565b610c92565b604051610298919061321e565b6102ec600080516020613d6683398151915281565b6102e1610433366004613392565b610e2d565b6102ec600c5481565b6102e16112b4565b61028c610457366004613087565b6112f0565b6102b461046a366004612fe5565b61131b565b6102ec611385565b6102e1611744565b6102ec6117bf565b61049a610495366004613044565b6117cf565b6040516102989a999897969594939291906133f3565b6102ec600081565b6102ec6104c636600461305d565b6118c0565b600e546104e39061010090046001600160a01b031681565b6040516001600160a01b039091168152602001610298565b6102e1610509366004613460565b6118dc565b600f546104e3906001600160a01b031681565b6102ec600a5481565b6102e1611a10565b6102e1610540366004613087565b611a8e565b6102ec611ab4565b6102e161055b3660046134d8565b611abf565b6102e161056e366004613044565b61210e565b610586610581366004613044565b612268565b604051610298989796959493929190613574565b6102e16105a83660046135db565b612344565b6102e16105bb366004613044565b6123d1565b6102ec7f97667070c54ef182b0f5858b034beac1b6f3089aa2d3188bb1e8929f4fa9b92981565b6104e37f000000000000000000000000000000000000000000000000000000000000000081565b6102e161061c36600461360b565b612572565b600061062c82612751565b92915050565b6001600160a01b03811660009081526007602090815260409182902080548351818402810184019094528084526060939283018282801561069257602002820191906000526020600020905b81548152602001906001019080831161067e575b50505050509050919050565b6106b6600080516020613d66833981519152336112f0565b806106e657506106e67f97667070c54ef182b0f5858b034beac1b6f3089aa2d3188bb1e8929f4fa9b929336112f0565b61070b5760405162461bcd60e51b815260040161070290613659565b60405180910390fd5b6000818152600660205260408120805490910361073a5760405162461bcd60e51b81526004016107029061369d565b600581015460ff161561075f5760405162461bcd60e51b8152600401610702906136ed565b6005810154610100900460ff16156107895760405162461bcd60e51b815260040161070290613733565b60058101805460ff1916600190811790915542600783015581015460048201546040516001600160a01b039092169184917f29feb0c28672aa113d103ae2b8994f18a00f45cc1cad92826d04ade78facc097916107ea9160028701916137a9565b60405180910390a35050565b6007602052816000526040600020818154811061081257600080fd5b90600052602060002001600091509150505481565b6000828152600160208190526040909120015461084381612786565b61084d8383612793565b505050565b6108be6040518061014001604052806000815260200160006001600160a01b03168152602001600081526020016000815260200160006001600160a01b031681526020016000151581526020016000151581526020016000815260200160008152602001606081525090565b6000828152600560208181526040928390208351610140810185528154815260018201546001600160a01b0390811693820193909352600282015494810194909452600381015460608501526004810154918216608085015260ff600160a01b83048116151560a0860152600160a81b909204909116151560c08401529081015460e0830152600681015461010083015260078101805461012084019190610965906137cb565b80601f0160208091040260200160405190810160405280929190818152602001828054610991906137cb565b80156109de5780601f106109b3576101008083540402835291602001916109de565b820191906000526020600020905b8154815290600101906020018083116109c157829003601f168201915b5050505050815250509050919050565b6001600160a01b0381163314610a5e5760405162461bcd60e51b815260206004820152602f60248201527f416363657373436f6e74726f6c3a2063616e206f6e6c792072656e6f756e636560448201526e103937b632b9903337b91039b2b63360891b6064820152608401610702565b610a6882826127fe565b5050565b610a84600080516020613d66833981519152336112f0565b610aa05760405162461bcd60e51b8152600401610702906137ff565b610aa8612865565b565b60008181526006602052604081208054909103610ad95760405162461bcd60e51b81526004016107029061369d565b600581015460ff1615610afe5760405162461bcd60e51b8152600401610702906136ed565b6005810154610100900460ff1615610b285760405162461bcd60e51b815260040161070290613733565b60018101546001600160a01b0316331480610b565750610b56600080516020613d66833981519152336112f0565b610ba25760405162461bcd60e51b815260206004820152601b60248201527f546f6b656e4272696467653a206e6f7420617574686f72697a656400000000006044820152606401610702565b60058101805461ff0019166101001790556000805b6002830154811015610c0257826002018181548110610bd857610bd8613840565b906000526020600020015482610bee919061386c565b915080610bfa8161387f565b915050610bb7565b506001820154610c3f906001600160a01b037f000000000000000000000000000000000000000000000000000000000000000081169116836128b7565b60018201546040516001600160a01b039091169084907fdc9f60e6989b2cff8b104c7d917bca83448f1a5c9173be4dd87e92f1aed68e9690610c85906002870190613898565b60405180910390a3505050565b610cf56040518061014001604052806000815260200160006001600160a01b031681526020016060815260200160608152602001600081526020016000151581526020016000151581526020016000815260200160008152602001606081525090565b6000828152600660209081526040918290208251610140810184528154815260018201546001600160a01b03168184015260028201805485518186028101860187528181529295939493860193830182828015610d7157602002820191906000526020600020905b815481526020019060010190808311610d5d575b5050505050815260200160038201805480602002602001604051908101604052809291908181526020018280548015610dd357602002820191906000526020600020905b81546001600160a01b03168152600190910190602001808311610db5575b505050918352505060048201546020820152600582015460ff80821615156040840152610100909104161515606082015260068201546080820152600782015460a082015260088201805460c090920191610965906137cb565b610e3561291a565b600e5460ff1615610e585760405162461bcd60e51b8152600401610702906138ab565b610e60612960565b600a54841015610e825760405162461bcd60e51b8152600401610702906138f0565b600b54841115610ea45760405162461bcd60e51b815260040161070290613931565b60008381526009602052604090205460ff16610ed25760405162461bcd60e51b815260040161070290613972565b6001600160a01b038216610f365760405162461bcd60e51b815260206004820152602560248201527f546f6b656e4272696467653a20696e76616c69642074617267657420726563696044820152641c1a595b9d60da1b6064820152608401610702565b6040516370a0823160e01b815233600482015284907f00000000000000000000000000000000000000000000000000000000000000006001600160a01b0316906370a0823190602401602060405180830381865afa158015610f9c573d6000803e3d6000fd5b505050506040513d601f19601f82011682018060405250810190610fc091906139b7565b1015610fde5760405162461bcd60e51b8152600401610702906139d0565b604051636eb1769f60e11b815233600482015230602482015284907f00000000000000000000000000000000000000000000000000000000000000006001600160a01b03169063dd62ed3e90604401602060405180830381865afa15801561104a573d6000803e3d6000fd5b505050506040513d601f19601f8201168201806040525081019061106e91906139b7565b101561108c5760405162461bcd60e51b815260040161070290613a11565b61109a600380546001019055565b60006110a560035490565b9050604051806101400160405280828152602001336001600160a01b03168152602001868152602001858152602001846001600160a01b031681526020016000151581526020016000151581526020014281526020016000815260200183815250600560008381526020019081526020016000206000820151816000015560208201518160010160006101000a8154816001600160a01b0302191690836001600160a01b03160217905550604082015181600201556060820151816003015560808201518160040160006101000a8154816001600160a01b0302191690836001600160a01b0316021790555060a08201518160040160146101000a81548160ff02191690831515021790555060c08201518160040160156101000a81548160ff02191690831515021790555060e0820151816005015561010082015181600601556101208201518160070190816111fc9190613a9a565b50503360008181526007602090815260408220805460018101825590835291200183905561125791507f00000000000000000000000000000000000000000000000000000000000000006001600160a01b03169030886129b9565b60408051868152602081018690526001600160a01b038516818301529051339183917f2ffd08769bfc1f6c12ee9d0c9028b488ba6a50e84765db26a038bb0e366d8c8a9181900360600190a3506112ae6001600055565b50505050565b6112cc600080516020613d66833981519152336112f0565b6112e85760405162461bcd60e51b8152600401610702906137ff565b610aa86129f1565b60009182526001602090815260408084206001600160a01b0393909316845291905290205460ff1690565b6001600160a01b038116600090815260086020908152604091829020805483518184028101840190945280845260609392830182828015610692576020028201919060005260206000209081548152602001906001019080831161067e5750505050509050919050565b60008060015b60035481116114fc5760008181526005602081815260408084208151610140810183528154815260018201546001600160a01b0390811694820194909452600282015492810192909252600381015460608301526004810154928316608083015260ff600160a01b84048116151560a0840152600160a81b909304909216151560c08201529181015460e083015260068101546101008301526007810180546101208401919061143a906137cb565b80601f0160208091040260200160405190810160405280929190818152602001828054611466906137cb565b80156114b35780601f10611488576101008083540402835291602001916114b3565b820191906000526020600020905b81548152906001019060200180831161149657829003601f168201915b50505050508152505090508060a001511580156114d257508060c00151155b156114e95760408101516114e6908461386c565b92505b50806114f48161387f565b91505061138b565b5060015b600454811161173e5760008181526006602090815260408083208151610140810183528154815260018201546001600160a01b03168185015260028201805484518187028101870186528181529295939486019383018282801561158357602002820191906000526020600020905b81548152602001906001019080831161156f575b50505050508152602001600382018054806020026020016040519081016040528092919081815260200182805480156115e557602002820191906000526020600020905b81546001600160a01b031681526001909101906020018083116115c7575b505050918352505060048201546020820152600582015460ff80821615156040840152610100909104161515606082015260068201546080820152600782015460a082015260088201805460c09092019161163f906137cb565b80601f016020809104026020016040519081016040528092919081815260200182805461166b906137cb565b80156116b85780601f1061168d576101008083540402835291602001916116b8565b820191906000526020600020905b81548152906001019060200180831161169b57829003601f168201915b50505050508152505090508060a001511580156116d757508060c00151155b1561172b5760005b816040015151811015611729578160400151818151811061170257611702613840565b602002602001015184611715919061386c565b9350806117218161387f565b9150506116df565b505b50806117368161387f565b915050611500565b50919050565b61176e7fbf233dd2aafeb4d50879c4aa5c81e96d92f6e6945c906a58f9f2d1c1631b4b26336112f0565b61178a5760405162461bcd60e51b815260040161070290613b5a565b600e805460ff191690556040517f70b9dcaceb756943ac1a4f48b8df9ea82fbb012b87e405cba4ed77d1ded0df4190600090a1565b60006117ca60045490565b905090565b60056020819052600091825260409091208054600182015460028301546003840154600485015495850154600686015460078701805496986001600160a01b03968716989597949681169560ff600160a01b8304811696600160a81b90930416949392909161183d906137cb565b80601f0160208091040260200160405190810160405280929190818152602001828054611869906137cb565b80156118b65780601f1061188b576101008083540402835291602001916118b6565b820191906000526020600020905b81548152906001019060200180831161189957829003601f168201915b505050505090508a565b6008602052816000526040600020818154811061081257600080fd5b6118f4600080516020613d66833981519152336112f0565b6119105760405162461bcd60e51b8152600401610702906137ff565b8183106119695760405162461bcd60e51b815260206004820152602160248201527f546f6b656e4272696467653a20696e76616c696420616d6f756e742072616e676044820152606560f81b6064820152608401610702565b6103e88111156119bb5760405162461bcd60e51b815260206004820152601960248201527f546f6b656e4272696467653a2066656520746f6f2068696768000000000000006044820152606401610702565b600a839055600b829055600c81905560408051848152602081018490529081018290527fcc7144c2828f9ef66d0d443c03df6a11252e2c3aa56b04189a1b1fdcc893bd0c9060600160405180910390a1505050565b611a3a7fbf233dd2aafeb4d50879c4aa5c81e96d92f6e6945c906a58f9f2d1c1631b4b26336112f0565b611a565760405162461bcd60e51b815260040161070290613b5a565b600e805460ff191660011790556040517f9e91804b7b70a36dcecd9afc85507eb02441c485502f58d0e68589aa50b8226a90600090a1565b60008281526001602081905260409091200154611aaa81612786565b61084d83836127fe565b60006117ca60035490565b611ac761291a565b600e5460ff1615611aea5760405162461bcd60e51b8152600401610702906138ab565b611af2612960565b84611b525760405162461bcd60e51b815260206004820152602a60248201527f546f6b656e4272696467653a20616d6f756e74732061727261792063616e6e6f6044820152697420626520656d70747960b01b6064820152608401610702565b6032851115611ba35760405162461bcd60e51b815260206004820152601d60248201527f546f6b656e4272696467653a20746f6f206d616e7920616d6f756e74730000006044820152606401610702565b848314611bfe5760405162461bcd60e51b815260206004820152602360248201527f546f6b656e4272696467653a20617272617973206c656e677468206d69736d616044820152620e8c6d60eb1b6064820152608401610702565b60008281526009602052604090205460ff16611c2c5760405162461bcd60e51b815260040161070290613972565b6000805b86811015611d6357600a54888883818110611c4d57611c4d613840565b905060200201351015611c725760405162461bcd60e51b8152600401610702906138f0565b600b54888883818110611c8757611c87613840565b905060200201351115611cac5760405162461bcd60e51b815260040161070290613931565b6000868683818110611cc057611cc0613840565b9050602002016020810190611cd59190612fe5565b6001600160a01b031603611d2b5760405162461bcd60e51b815260206004820152601e60248201527f546f6b656e4272696467653a20696e76616c696420726563697069656e7400006044820152606401610702565b878782818110611d3d57611d3d613840565b9050602002013582611d4f919061386c565b915080611d5b8161387f565b915050611c30565b506040516370a0823160e01b815233600482015281907f00000000000000000000000000000000000000000000000000000000000000006001600160a01b0316906370a0823190602401602060405180830381865afa158015611dca573d6000803e3d6000fd5b505050506040513d601f19601f82011682018060405250810190611dee91906139b7565b1015611e0c5760405162461bcd60e51b8152600401610702906139d0565b604051636eb1769f60e11b815233600482015230602482015281907f00000000000000000000000000000000000000000000000000000000000000006001600160a01b03169063dd62ed3e90604401602060405180830381865afa158015611e78573d6000803e3d6000fd5b505050506040513d601f19601f82011682018060405250810190611e9c91906139b7565b1015611eba5760405162461bcd60e51b815260040161070290613a11565b611ec8600480546001019055565b6000611ed360045490565b9050604051806101400160405280828152602001336001600160a01b0316815260200189898080602002602001604051908101604052809392919081815260200183836020028082843760009201919091525050509082525060408051602089810282810182019093528982529283019290918a918a9182918501908490808284376000920182905250938552505050602080830188905260408084018390526060840183905242608085015260a0840183905260c0909301879052848252600681529082902083518155838201516001820180546001600160a01b0319166001600160a01b03909216919091179055918301518051611fd99260028501920190612eea565b5060608201518051611ff5916003840191602090910190612f35565b506080820151600482015560a082015160058201805460c085015161ffff1990911692151561ff00191692909217610100921515830217905560e08301516006830155820151600782015561012082015160088201906120559082613a9a565b5050336000818152600860209081526040822080546001810182559083529120018390556120b091507f00000000000000000000000000000000000000000000000000000000000000006001600160a01b03169030856129b9565b336001600160a01b0316817fd038dbb284481eb8c270e04f9630990d8371e00ff49527c98ec34ce26025667b8a8a888b8b6040516120f2959493929190613b9f565b60405180910390a350506121066001600055565b505050505050565b612126600080516020613d66833981519152336112f0565b8061215657506121567f97667070c54ef182b0f5858b034beac1b6f3089aa2d3188bb1e8929f4fa9b929336112f0565b6121725760405162461bcd60e51b815260040161070290613659565b600081815260056020526040812080549091036121a15760405162461bcd60e51b815260040161070290613c2c565b6004810154600160a01b900460ff16156121cd5760405162461bcd60e51b8152600401610702906136ed565b6004810154600160a81b900460ff16156121f95760405162461bcd60e51b815260040161070290613733565b60048101805460ff60a01b1916600160a01b1790554260068201556001810154600282015460038301546040516001600160a01b039093169285927fb82d86b2d20f694ff755321f5b6a3d1115220c86fe90af1a053e334b6e283f03926107ea92918252602082015260400190565b6006602081905260009182526040909120805460018201546004830154600584015494840154600785015460088601805495976001600160a01b0390951696939560ff808716966101009004169491906122c1906137cb565b80601f01602080910402602001604051908101604052809291908181526020018280546122ed906137cb565b801561233a5780601f1061230f5761010080835404028352916020019161233a565b820191906000526020600020905b81548152906001019060200180831161231d57829003601f168201915b5050505050905088565b61235c600080516020613d66833981519152336112f0565b6123785760405162461bcd60e51b8152600401610702906137ff565b600082815260096020908152604091829020805460ff19168415159081179091558251858152918201527fe78910fc1a08062969a9edf6b274d453a04a1734507fabbd5bb445d5cb8eaeae910160405180910390a15050565b600081815260056020526040812080549091036124005760405162461bcd60e51b815260040161070290613c2c565b6004810154600160a01b900460ff161561242c5760405162461bcd60e51b8152600401610702906136ed565b6004810154600160a81b900460ff16156124585760405162461bcd60e51b815260040161070290613733565b60018101546001600160a01b03163314806124865750612486600080516020613d66833981519152336112f0565b6124d25760405162461bcd60e51b815260206004820152601b60248201527f546f6b656e4272696467653a206e6f7420617574686f72697a656400000000006044820152606401610702565b60048101805460ff60a81b1916600160a81b1790556001810154600282015461252a917f00000000000000000000000000000000000000000000000000000000000000006001600160a01b03908116929116906128b7565b600181015460028201546040519081526001600160a01b039091169083907f9786a26065913c3db49f4033f9ee469151c395ffca7881aa34a43e81d5514abe906020016107ea565b61258a600080516020613d66833981519152336112f0565b6125a65760405162461bcd60e51b8152600401610702906137ff565b6001600160a01b03821661260a5760405162461bcd60e51b815260206004820152602560248201527f546f6b656e4272696467653a20696e76616c696420636f6e7472616374206164604482015264647265737360d81b6064820152608401610702565b6040516a2637b1b5a6b0b730b3b2b960a91b6020820152602b01604051602081830303815290604052805190602001208160405160200161264b9190613c76565b604051602081830303815290604052805190602001200361268b57600e8054610100600160a81b0319166101006001600160a01b03851602179055612705565b6040516c546f6b656e54696d656c6f636b60981b6020820152602d0160405160208183030381529060405280519060200120816040516020016126ce9190613c76565b604051602081830303815290604052805190602001200361270557600f80546001600160a01b0319166001600160a01b0384161790555b816001600160a01b03168160405161271d9190613c76565b604051908190038120907f5949832f549a4722d22d75ba63efe61ab6ffa1f764a3ef1e4cada5862c49e9ec90600090a35050565b60006001600160e01b03198216637965db0b60e01b148061062c57506301ffc9a760e01b6001600160e01b031983161461062c565b6127908133612a2e565b50565b61279d82826112f0565b610a685760008281526001602081815260408084206001600160a01b0386168086529252808420805460ff19169093179092559051339285917f2f8788117e7eff1d82e926ec794901d17c78024a50270940304540a733656f0d9190a45050565b61280882826112f0565b15610a685760008281526001602090815260408083206001600160a01b0385168085529252808320805460ff1916905551339285917ff6391f5c32d9c69d2a47ea670b442974b53935d1edc7fd64eb21e047a839171b9190a45050565b61286d612a87565b6002805460ff191690557f5db9ee0a495bf2e6ff9c91a7834c1ba4fdd244a5e8aa4e537bd38aeae4b073aa335b6040516001600160a01b03909116815260200160405180910390a1565b6040516001600160a01b03831660248201526044810182905261084d90849063a9059cbb60e01b906064015b60408051601f198184030181529190526020810180516001600160e01b03166001600160e01b031990931692909217909152612ad0565b60025460ff1615610aa85760405162461bcd60e51b815260206004820152601060248201526f14185d5cd8589b194e881c185d5cd95960821b6044820152606401610702565b6002600054036129b25760405162461bcd60e51b815260206004820152601f60248201527f5265656e7472616e637947756172643a207265656e7472616e742063616c6c006044820152606401610702565b6002600055565b6040516001600160a01b03808516602483015283166044820152606481018290526112ae9085906323b872dd60e01b906084016128e3565b6129f961291a565b6002805460ff191660011790557f62e78cea01bee320cd4e420270b5ea74000d11b0c9f74754ebdbfc544b05a25861289a3390565b612a3882826112f0565b610a6857612a4581612ba5565b612a50836020612bb7565b604051602001612a61929190613c92565b60408051601f198184030181529082905262461bcd60e51b825261070291600401613d07565b60025460ff16610aa85760405162461bcd60e51b815260206004820152601460248201527314185d5cd8589b194e881b9bdd081c185d5cd95960621b6044820152606401610702565b6000612b25826040518060400160405280602081526020017f5361666545524332303a206c6f772d6c6576656c2063616c6c206661696c6564815250856001600160a01b0316612d5a9092919063ffffffff16565b9050805160001480612b46575080806020019051810190612b469190613d1a565b61084d5760405162461bcd60e51b815260206004820152602a60248201527f5361666545524332303a204552433230206f7065726174696f6e20646964206e6044820152691bdd081cdd58d8d9595960b21b6064820152608401610702565b606061062c6001600160a01b03831660145b60606000612bc6836002613d37565b612bd190600261386c565b67ffffffffffffffff811115612be957612be96132ef565b6040519080825280601f01601f191660200182016040528015612c13576020820181803683370190505b509050600360fc1b81600081518110612c2e57612c2e613840565b60200101906001600160f81b031916908160001a905350600f60fb1b81600181518110612c5d57612c5d613840565b60200101906001600160f81b031916908160001a9053506000612c81846002613d37565b612c8c90600161386c565b90505b6001811115612d04576f181899199a1a9b1b9c1cb0b131b232b360811b85600f1660108110612cc057612cc0613840565b1a60f81b828281518110612cd657612cd6613840565b60200101906001600160f81b031916908160001a90535060049490941c93612cfd81613d4e565b9050612c8f565b508315612d535760405162461bcd60e51b815260206004820181905260248201527f537472696e67733a20686578206c656e67746820696e73756666696369656e746044820152606401610702565b9392505050565b6060612d698484600085612d71565b949350505050565b606082471015612dd25760405162461bcd60e51b815260206004820152602660248201527f416464726573733a20696e73756666696369656e742062616c616e636520666f6044820152651c8818d85b1b60d21b6064820152608401610702565b600080866001600160a01b03168587604051612dee9190613c76565b60006040518083038185875af1925050503d8060008114612e2b576040519150601f19603f3d011682016040523d82523d6000602084013e612e30565b606091505b5091509150612e4187838387612e4c565b979650505050505050565b60608315612ebb578251600003612eb4576001600160a01b0385163b612eb45760405162461bcd60e51b815260206004820152601d60248201527f416464726573733a2063616c6c20746f206e6f6e2d636f6e74726163740000006044820152606401610702565b5081612d69565b612d698383815115612ed05781518083602001fd5b8060405162461bcd60e51b81526004016107029190613d07565b828054828255906000526020600020908101928215612f25579160200282015b82811115612f25578251825591602001919060010190612f0a565b50612f31929150612f8a565b5090565b828054828255906000526020600020908101928215612f25579160200282015b82811115612f2557825182546001600160a01b0319166001600160a01b03909116178255602090920191600190910190612f55565b5b80821115612f315760008155600101612f8b565b600060208284031215612fb157600080fd5b81356001600160e01b031981168114612d5357600080fd5b80356001600160a01b0381168114612fe057600080fd5b919050565b600060208284031215612ff757600080fd5b612d5382612fc9565b6020808252825182820181905260009190848201906040850190845b818110156130385783518352928401929184019160010161301c565b50909695505050505050565b60006020828403121561305657600080fd5b5035919050565b6000806040838503121561307057600080fd5b61307983612fc9565b946020939093013593505050565b6000806040838503121561309a57600080fd5b823591506130aa60208401612fc9565b90509250929050565b60005b838110156130ce5781810151838201526020016130b6565b50506000910152565b600081518084526130ef8160208601602086016130b3565b601f01601f19169290920160200192915050565b60208152815160208201526000602083015161312a60408401826001600160a01b03169052565b506040830151606083015260608301516080830152608083015161315960a08401826001600160a01b03169052565b5060a083015180151560c08401525060c083015180151560e08401525060e0830151610100838101919091528301516101208084019190915283015161014080840152612d696101608401826130d7565b600081518084526020808501945080840160005b838110156131da578151875295820195908201906001016131be565b509495945050505050565b600081518084526020808501945080840160005b838110156131da5781516001600160a01b0316875295820195908201906001016131f9565b60208152815160208201526000602083015161324560408401826001600160a01b03169052565b5060408301516101408060608501526132626101608501836131aa565b91506060850151601f198086850301608087015261328084836131e5565b9350608087015160a087015260a087015191506132a160c087018315159052565b60c087015180151560e0880152915060e087015161010087810191909152870151610120808801919091528701518685039091018387015290506132e583826130d7565b9695505050505050565b634e487b7160e01b600052604160045260246000fd5b600082601f83011261331657600080fd5b813567ffffffffffffffff80821115613331576133316132ef565b604051601f8301601f19908116603f01168101908282118183101715613359576133596132ef565b8160405283815286602085880101111561337257600080fd5b836020870160208301376000602085830101528094505050505092915050565b600080600080608085870312156133a857600080fd5b84359350602085013592506133bf60408601612fc9565b9150606085013567ffffffffffffffff8111156133db57600080fd5b6133e787828801613305565b91505092959194509250565b60006101408c835260018060a01b03808d1660208501528b60408501528a6060850152808a1660808501525087151560a084015286151560c08401528560e0840152846101008401528061012084015261344f818401856130d7565b9d9c50505050505050505050505050565b60008060006060848603121561347557600080fd5b505081359360208301359350604090920135919050565b60008083601f84011261349e57600080fd5b50813567ffffffffffffffff8111156134b657600080fd5b6020830191508360208260051b85010111156134d157600080fd5b9250929050565b600080600080600080608087890312156134f157600080fd5b863567ffffffffffffffff8082111561350957600080fd5b6135158a838b0161348c565b9098509650602089013591508082111561352e57600080fd5b61353a8a838b0161348c565b909650945060408901359350606089013591508082111561355a57600080fd5b5061356789828a01613305565b9150509295509295509295565b60006101008a835260018060a01b038a166020840152886040840152871515606084015286151560808401528560a08401528460c08401528060e08401526135be818401856130d7565b9b9a5050505050505050505050565b801515811461279057600080fd5b600080604083850312156135ee57600080fd5b823591506020830135613600816135cd565b809150509250929050565b6000806040838503121561361e57600080fd5b61362783612fc9565b9150602083013567ffffffffffffffff81111561364357600080fd5b61364f85828601613305565b9150509250929050565b60208082526024908201527f546f6b656e4272696467653a206d7573742068617665206f70657261746f7220604082015263726f6c6560e01b606082015260800190565b60208082526030908201527f546f6b656e4272696467653a206261746368206272696467652072657175657360408201526f1d08191bd95cc81b9bdd08195e1a5cdd60821b606082015260800190565b60208082526026908201527f546f6b656e4272696467653a207265717565737420616c72656164792070726f60408201526518d95cdcd95960d21b606082015260800190565b60208082526021908201527f546f6b656e4272696467653a20726571756573742069732063616e63656c6c656040820152601960fa1b606082015260800190565b6000815480845260208085019450836000528060002060005b838110156131da5781548752958201956001918201910161378d565b6040815260006137bc6040830185613774565b90508260208301529392505050565b600181811c908216806137df57607f821691505b60208210810361173e57634e487b7160e01b600052602260045260246000fd5b60208082526021908201527f546f6b656e4272696467653a206d75737420686176652061646d696e20726f6c6040820152606560f81b606082015260800190565b634e487b7160e01b600052603260045260246000fd5b634e487b7160e01b600052601160045260246000fd5b8082018082111561062c5761062c613856565b60006001820161389157613891613856565b5060010190565b602081526000612d536020830184613774565b60208082526025908201527f546f6b656e4272696467653a20656d657267656e6379206d6f64652069732061604082015264637469766560d81b606082015260800190565b60208082526021908201527f546f6b656e4272696467653a20616d6f756e742062656c6f77206d696e696d756040820152606d60f81b606082015260800190565b60208082526021908201527f546f6b656e4272696467653a20616d6f756e742061626f7665206d6178696d756040820152606d60f81b606082015260800190565b60208082526025908201527f546f6b656e4272696467653a20756e737570706f72746564207461726765742060408201526431b430b4b760d91b606082015260800190565b6000602082840312156139c957600080fd5b5051919050565b60208082526021908201527f546f6b656e4272696467653a20696e73756666696369656e742062616c616e636040820152606560f81b606082015260800190565b60208082526023908201527f546f6b656e4272696467653a20696e73756666696369656e7420616c6c6f77616040820152626e636560e81b606082015260800190565b601f82111561084d57600081815260208120601f850160051c81016020861015613a7b5750805b601f850160051c820191505b8181101561210657828155600101613a87565b815167ffffffffffffffff811115613ab457613ab46132ef565b613ac881613ac284546137cb565b84613a54565b602080601f831160018114613afd5760008415613ae55750858301515b600019600386901b1c1916600185901b178555612106565b600085815260208120601f198616915b82811015613b2c57888601518255948401946001909101908401613b0d565b5085821015613b4a5787850151600019600388901b60f8161c191681555b5050505050600190811b01905550565b60208082526025908201527f546f6b656e4272696467653a206d757374206861766520656d657267656e637960408201526420726f6c6560d81b606082015260800190565b6060808252810185905260006001600160fb1b03861115613bbf57600080fd5b8560051b808860808501376020808401879052908301838103608090810160408601528101859052859160009160a0015b86831015613c1e576001600160a01b03613c0985612fc9565b16815292810192600192909201918101613bf0565b9a9950505050505050505050565b6020808252602a908201527f546f6b656e4272696467653a20627269646765207265717565737420646f6573604082015269081b9bdd08195e1a5cdd60b21b606082015260800190565b60008251613c888184602087016130b3565b9190910192915050565b7f416363657373436f6e74726f6c3a206163636f756e7420000000000000000000815260008351613cca8160178501602088016130b3565b7001034b99036b4b9b9b4b733903937b6329607d1b6017918401918201528351613cfb8160288401602088016130b3565b01602801949350505050565b602081526000612d5360208301846130d7565b600060208284031215613d2c57600080fd5b8151612d53816135cd565b808202811582820484141761062c5761062c613856565b600081613d5d57613d5d613856565b50600019019056fea49807205ce4d355092ef5a8a18f56e8913cf4a201fbe287825b095693c21775a2646970667358221220d98a275c150d8b1793d24fc38fc3b96a43d5f4dd242dc87c4174c23d1dfdf66964736f6c63430008140033",
  "linkReferences": {},
  "deployedLinkReferences": {}
}