{
  "_format": "hh-sol-artifact-1",
  "contractName": "TetherUSDBridgedZED20",
  "sourceName": "contracts/TetherUSDBridgedZED20.sol",
  "abi": [
    {
      "inputs": [],
      "stateMutability": "nonpayable",
      "type": "constructor"
    },
    {
      "anonymous": false,
      "inputs": [
        {
          "indexed": true,
          "internalType": "address",
          "name": "owner",
          "type": "address"
        },
        {
          "indexed": true,
          "internalType": "address",
          "name": "spender",
          "type": "address"
        },
        {
          "indexed": false,
          "internalType": "uint256",
          "name": "value",
          "type": "uint256"
        }
      ],
      "name": "Approval",
      "type": "event"
    },
    {
      "anonymous": false,
      "inputs": [],
      "name": "MaxSupplyLocked",
      "type": "event"
    },
    {
      "anonymous": false,
      "inputs": [
        {
          "indexed": false,
          "internalType": "uint256",
          "name": "oldMaxSupply",
          "type": "uint256"
        },
        {
          "indexed": false,
          "internalType": "uint256",
          "name": "newMaxSupply",
          "type": "uint256"
        }
      ],
      "name": "MaxSupplyUpdated",
      "type": "event"
    },
    {
      "anonymous": false,
      "inputs": [
        {
          "indexed": false,
          "internalType": "address",
          "name": "account",
          "type": "address"
        }
      ],
      "name": "Paused",
      "type": "event"
    },
    {
      "anonymous": false,
      "inputs": [
        {
          "indexed": true,
          "internalType": "bytes32",
          "name": "role",
          "type": "bytes32"
        },
        {
          "indexed": true,
          "internalType": "bytes32",
          "name": "previousAdminRole",
          "type": "bytes32"
        },
        {
          "indexed": true,
          "internalType": "bytes32",
          "name": "newAdminRole",
          "type": "bytes32"
        }
      ],
      "name": "RoleAdminChanged",
      "type": "event"
    },
    {
      "anonymous": false,
      "inputs": [
        {
          "indexed": true,
          "internalType": "bytes32",
          "name": "role",
          "type": "bytes32"
        },
        {
          "indexed": true,
          "internalType": "address",
          "name": "account",
          "type": "address"
        },
        {
          "indexed": true,
          "internalType": "address",
          "name": "sender",
          "type": "address"
        }
      ],
      "name": "RoleGranted",
      "type": "event"
    },
    {
      "anonymous": false,
      "inputs": [
        {
          "indexed": true,
          "internalType": "bytes32",
          "name": "role",
          "type": "bytes32"
        },
        {
          "indexed": true,
          "internalType": "address",
          "name": "account",
          "type": "address"
        },
        {
          "indexed": true,
          "internalType": "address",
          "name": "sender",
          "type": "address"
        }
      ],
      "name": "RoleRevoked",
      "type": "event"
    },
    {
      "anonymous": false,
      "inputs": [
        {
          "indexed": true,
          "internalType": "address",
          "name": "from",
          "type": "address"
        },
        {
          "indexed": false,
          "internalType": "uint256",
          "name": "amount",
          "type": "uint256"
        },
        {
          "indexed": false,
          "internalType": "string",
          "name": "reason",
          "type": "string"
        }
      ],
      "name": "TokensBurned",
      "type": "event"
    },
    {
      "anonymous": false,
      "inputs": [
        {
          "indexed": true,
          "internalType": "address",
          "name": "to",
          "type": "address"
        },
        {
          "indexed": false,
          "internalType": "uint256",
          "name": "amount",
          "type": "uint256"
        },
        {
          "indexed": false,
          "internalType": "string",
          "name": "reason",
          "type": "string"
        }
      ],
      "name": "TokensMinted",
      "type": "event"
    },
    {
      "anonymous": false,
      "inputs": [
        {
          "indexed": true,
          "internalType": "address",
          "name": "from",
          "type": "address"
        },
        {
          "indexed": true,
          "internalType": "address",
          "name": "to",
          "type": "address"
        },
        {
          "indexed": false,
          "internalType": "uint256",
          "name": "value",
          "type": "uint256"
        }
      ],
      "name": "Transfer",
      "type": "event"
    },
    {
      "anonymous": false,
      "inputs": [
        {
          "indexed": false,
          "internalType": "address",
          "name": "account",
          "type": "address"
        }
      ],
      "name": "Unpaused",
      "type": "event"
    },
    {
      "inputs": [],
      "name": "BURNER_ROLE",
      "outputs": [
        {
          "internalType": "bytes32",
          "name": "",
          "type": "bytes32"
        }
      ],
      "stateMutability": "view",
      "type": "function"
    },
    {
      "inputs": [],
      "name": "DEFAULT_ADMIN_ROLE",
      "outputs": [
        {
          "internalType": "bytes32",
          "name": "",
          "type": "bytes32"
        }
      ],
      "stateMutability": "view",
      "type": "function"
    },
    {
      "inputs": [],
      "name": "MINTER_ROLE",
      "outputs": [
        {
          "internalType": "bytes32",
          "name": "",
          "type": "bytes32"
        }
      ],
      "stateMutability": "view",
      "type": "function"
    },
    {
      "inputs": [],
      "name": "PAUSER_ROLE",
      "outputs": [
        {
          "internalType": "bytes32",
          "name": "",
          "type": "bytes32"
        }
      ],
      "stateMutability": "view",
      "type": "function"
    },
    {
      "inputs": [
        {
          "internalType": "address",
          "name": "owner",
          "type": "address"
        },
        {
          "internalType": "address",
          "name": "spender",
          "type": "address"
        }
      ],
      "name": "allowance",
      "outputs": [
        {
          "internalType": "uint256",
          "name": "",
          "type": "uint256"
        }
      ],
      "stateMutability": "view",
      "type": "function"
    },
    {
      "inputs": [
        {
          "internalType": "address",
          "name": "spender",
          "type": "address"
        },
        {
          "internalType": "uint256",
          "name": "amount",
          "type": "uint256"
        }
      ],
      "name": "approve",
      "outputs": [
        {
          "internalType": "bool",
          "name": "",
          "type": "bool"
        }
      ],
      "stateMutability": "nonpayable",
      "type": "function"
    },
    {
      "inputs": [
        {
          "internalType": "address",
          "name": "account",
          "type": "address"
        }
      ],
      "name": "balanceOf",
      "outputs": [
        {
          "internalType": "uint256",
          "name": "",
          "type": "uint256"
        }
      ],
      "stateMutability": "view",
      "type": "function"
    },
    {
      "inputs": [
        {
          "internalType": "address[]",
          "name": "recipients",
          "type": "address[]"
        },
        {
          "internalType": "uint256[]",
          "name": "amounts",
          "type": "uint256[]"
        }
      ],
      "name": "batchTransfer",
      "outputs": [],
      "stateMutability": "nonpayable",
      "type": "function"
    },
    {
      "inputs": [
        {
          "internalType": "address",
          "name": "from",
          "type": "address"
        },
        {
          "internalType": "uint256",
          "name": "amount",
          "type": "uint256"
        },
        {
          "internalType": "string",
          "name": "reason",
          "type": "string"
        }
      ],
      "name": "burn",
      "outputs": [],
      "stateMutability": "nonpayable",
      "type": "function"
    },
    {
      "inputs": [],
      "name": "decimals",
      "outputs": [
        {
          "internalType": "uint8",
          "name": "",
          "type": "uint8"
        }
      ],
      "stateMutability": "view",
      "type": "function"
    },
    {
      "inputs": [
        {
          "internalType": "address",
          "name": "spender",
          "type": "address"
        },
        {
          "internalType": "uint256",
          "name": "subtractedValue",
          "type": "uint256"
        }
      ],
      "name": "decreaseAllowance",
      "outputs": [
        {
          "internalType": "bool",
          "name": "",
          "type": "bool"
        }
      ],
      "stateMutability": "nonpayable",
      "type": "function"
    },
    {
      "inputs": [
        {
          "internalType": "bytes32",
          "name": "role",
          "type": "bytes32"
        }
      ],
      "name": "getRoleAdmin",
      "outputs": [
        {
          "internalType": "bytes32",
          "name": "",
          "type": "bytes32"
        }
      ],
      "stateMutability": "view",
      "type": "function"
    },
    {
      "inputs": [
        {
          "internalType": "bytes32",
          "name": "role",
          "type": "bytes32"
        },
        {
          "internalType": "address",
          "name": "account",
          "type": "address"
        }
      ],
      "name": "grantRole",
      "outputs": [],
      "stateMutability": "nonpayable",
      "type": "function"
    },
    {
      "inputs": [
        {
          "internalType": "bytes32",
          "name": "role",
          "type": "bytes32"
        },
        {
          "internalType": "address",
          "name": "account",
          "type": "address"
        }
      ],
      "name": "hasRole",
      "outputs": [
        {
          "internalType": "bool",
          "name": "",
          "type": "bool"
        }
      ],
      "stateMutability": "view",
      "type": "function"
    },
    {
      "inputs": [
        {
          "internalType": "address",
          "name": "spender",
          "type": "address"
        },
        {
          "internalType": "uint256",
          "name": "addedValue",
          "type": "uint256"
        }
      ],
      "name": "increaseAllowance",
      "outputs": [
        {
          "internalType": "bool",
          "name": "",
          "type": "bool"
        }
      ],
      "stateMutability": "nonpayable",
      "type": "function"
    },
    {
      "inputs": [],
      "name": "lockMaxSupply",
      "outputs": [],
      "stateMutability": "nonpayable",
      "type": "function"
    },
    {
      "inputs": [],
      "name": "maxSupply",
      "outputs": [
        {
          "internalType": "uint256",
          "name": "",
          "type": "uint256"
        }
      ],
      "stateMutability": "view",
      "type": "function"
    },
    {
      "inputs": [],
      "name": "maxSupplyLocked",
      "outputs": [
        {
          "internalType": "bool",
          "name": "",
          "type": "bool"
        }
      ],
      "stateMutability": "view",
      "type": "function"
    },
    {
      "inputs": [
        {
          "internalType": "address",
          "name": "to",
          "type": "address"
        },
        {
          "internalType": "uint256",
          "name": "amount",
          "type": "uint256"
        },
        {
          "internalType": "string",
          "name": "reason",
          "type": "string"
        }
      ],
      "name": "mint",
      "outputs": [],
      "stateMutability": "nonpayable",
      "type": "function"
    },
    {
      "inputs": [],
      "name": "name",
      "outputs": [
        {
          "internalType": "string",
          "name": "",
          "type": "string"
        }
      ],
      "stateMutability": "view",
      "type": "function"
    },
    {
      "inputs": [],
      "name": "pause",
      "outputs": [],
      "stateMutability": "nonpayable",
      "type": "function"
    },
    {
      "inputs": [],
      "name": "paused",
      "outputs": [
        {
          "internalType": "bool",
          "name": "",
          "type": "bool"
        }
      ],
      "stateMutability": "view",
      "type": "function"
    },
    {
      "inputs": [
        {
          "internalType": "bytes32",
          "name": "role",
          "type": "bytes32"
        },
        {
          "internalType": "address",
          "name": "account",
          "type": "address"
        }
      ],
      "name": "renounceRole",
      "outputs": [],
      "stateMutability": "nonpayable",
      "type": "function"
    },
    {
      "inputs": [
        {
          "internalType": "bytes32",
          "name": "role",
          "type": "bytes32"
        },
        {
          "internalType": "address",
          "name": "account",
          "type": "address"
        }
      ],
      "name": "revokeRole",
      "outputs": [],
      "stateMutability": "nonpayable",
      "type": "function"
    },
    {
      "inputs": [
        {
          "internalType": "uint256",
          "name": "newMaxSupply",
          "type": "uint256"
        }
      ],
      "name": "setMaxSupply",
      "outputs": [],
      "stateMutability": "nonpayable",
      "type": "function"
    },
    {
      "inputs": [
        {
          "internalType": "bytes4",
          "name": "interfaceId",
          "type": "bytes4"
        }
      ],
      "name": "supportsInterface",
      "outputs": [
        {
          "internalType": "bool",
          "name": "",
          "type": "bool"
        }
      ],
      "stateMutability": "view",
      "type": "function"
    },
    {
      "inputs": [],
      "name": "symbol",
      "outputs": [
        {
          "internalType": "string",
          "name": "",
          "type": "string"
        }
      ],
      "stateMutability": "view",
      "type": "function"
    },
    {
      "inputs": [],
      "name": "totalSupply",
      "outputs": [
        {
          "internalType": "uint256",
          "name": "",
          "type": "uint256"
        }
      ],
      "stateMutability": "view",
      "type": "function"
    },
    {
      "inputs": [
        {
          "internalType": "address",
          "name": "to",
          "type": "address"
        },
        {
          "internalType": "uint256",
          "name": "amount",
          "type": "uint256"
        }
      ],
      "name": "transfer",
      "outputs": [
        {
          "internalType": "bool",
          "name": "",
          "type": "bool"
        }
      ],
      "stateMutability": "nonpayable",
      "type": "function"
    },
    {
      "inputs": [
        {
          "internalType": "address",
          "name": "from",
          "type": "address"
        },
        {
          "internalType": "address",
          "name": "to",
          "type": "address"
        },
        {
          "internalType": "uint256",
          "name": "amount",
          "type": "uint256"
        }
      ],
      "name": "transferFrom",
      "outputs": [
        {
          "internalType": "bool",
          "name": "",
          "type": "bool"
        }
      ],
      "stateMutability": "nonpayable",
      "type": "function"
    },
    {
      "inputs": [],
      "name": "unpause",
      "outputs": [],
      "stateMutability": "nonpayable",
      "type": "function"
    }
  ],
  "bytecode": "0x60806040523480156200001157600080fd5b506040518060400160405280601281526020017115195d1a195c881554d108109c9a5919d95960721b815250604051806040016040528060048152602001631554d11560e21b81525081600390816200006b9190620002a1565b5060046200007a8282620002a1565b50506006805460ff191690555060016007556200009960003362000144565b620000c57f9f2df0fed2c77648de5860a4cc508cd0818c85b8b8a1ab4ceeef8d981c8956a63362000144565b620000f17f3c11d16cbaffd01df69ce1c404f6340ee057498f5f00246190ea54220576a8483362000144565b6200011d7f65d7a28e3265b37a6474929f336521b332c1681b933f6cb9f3376673440d862a3362000144565b6200012b6012600a62000480565b6200013b90633b9aca0062000498565b600855620004b2565b620001508282620001cf565b620001cb5760008281526005602090815260408083206001600160a01b03851684529091529020805460ff191660011790556200018a3390565b6001600160a01b0316816001600160a01b0316837f2f8788117e7eff1d82e926ec794901d17c78024a50270940304540a733656f0d60405160405180910390a45b5050565b60008281526005602090815260408083206001600160a01b038516845290915290205460ff165b92915050565b634e487b7160e01b600052604160045260246000fd5b600181811c908216806200022757607f821691505b6020821081036200024857634e487b7160e01b600052602260045260246000fd5b50919050565b601f8211156200029c57600081815260208120601f850160051c81016020861015620002775750805b601f850160051c820191505b81811015620002985782815560010162000283565b5050505b505050565b81516001600160401b03811115620002bd57620002bd620001fc565b620002d581620002ce845462000212565b846200024e565b602080601f8311600181146200030d5760008415620002f45750858301515b600019600386901b1c1916600185901b17855562000298565b600085815260208120601f198616915b828110156200033e578886015182559484019460019091019084016200031d565b50858210156200035d5787850151600019600388901b60f8161c191681555b5050505050600190811b01905550565b634e487b7160e01b600052601160045260246000fd5b600181815b80851115620003c4578160001904821115620003a857620003a86200036d565b80851615620003b657918102915b93841c939080029062000388565b509250929050565b600082620003dd57506001620001f6565b81620003ec57506000620001f6565b8160018114620004055760028114620004105762000430565b6001915050620001f6565b60ff8411156200042457620004246200036d565b50506001821b620001f6565b5060208310610133831016604e8410600b841016171562000455575081810a620001f6565b62000461838362000383565b80600019048211156200047857620004786200036d565b029392505050565b60006200049160ff841683620003cc565b9392505050565b8082028115828204841417620001f657620001f66200036d565b61200980620004c26000396000f3fe608060405234801561001057600080fd5b50600436106101e55760003560e01c806370a082311161010f578063a9059cbb116100a2578063d5abeb0111610071578063d5abeb0114610413578063dd62ed3e1461041c578063e63ab1e91461042f578063fca76c261461045657600080fd5b8063a9059cbb146103b3578063d3fc9864146103c6578063d5391393146103d9578063d547741f1461040057600080fd5b806395d89b41116100de57806395d89b4114610383578063a217fddf1461038b578063a457c2d714610393578063a8d0466c146103a657600080fd5b806370a082311461032c5780638456cb591461035557806388d695b21461035d57806391d148541461037057600080fd5b8063282c51f311610187578063395093511161015657806339509351146102f35780633f4ba83a146103065780635c975abb1461030e5780636f8b44b01461031957600080fd5b8063282c51f3146102975780632f2ff15d146102be578063313ce567146102d157806336568abe146102e057600080fd5b806315f570dc116101c357806315f570dc1461023a57806318160ddd1461024f57806323b872dd14610261578063248a9ca31461027457600080fd5b806301ffc9a7146101ea57806306fdde0314610212578063095ea7b314610227575b600080fd5b6101fd6101f8366004611aab565b61045e565b60405190151581526020015b60405180910390f35b61021a61046f565b6040516102099190611b25565b6101fd610235366004611b54565b610501565b61024d610248366004611b94565b610519565b005b6002545b604051908152602001610209565b6101fd61026f366004611c5f565b610732565b610253610282366004611c9b565b60009081526005602052604090206001015490565b6102537f3c11d16cbaffd01df69ce1c404f6340ee057498f5f00246190ea54220576a84881565b61024d6102cc366004611cb4565b610756565b60405160128152602001610209565b61024d6102ee366004611cb4565b61077b565b6101fd610301366004611b54565b6107f9565b61024d61081b565b60065460ff166101fd565b61024d610327366004611c9b565b61086b565b61025361033a366004611ce0565b6001600160a01b031660009081526020819052604090205490565b61024d61098b565b61024d61036b366004611d47565b6109d9565b6101fd61037e366004611cb4565b610d11565b61021a610d3c565b610253600081565b6101fd6103a1366004611b54565b610d4b565b6009546101fd9060ff1681565b6101fd6103c1366004611b54565b610dc6565b61024d6103d4366004611b94565b610dd4565b6102537f9f2df0fed2c77648de5860a4cc508cd0818c85b8b8a1ab4ceeef8d981c8956a681565b61024d61040e366004611cb4565b610fc1565b61025360085481565b61025361042a366004611db3565b610fe6565b6102537f65d7a28e3265b37a6474929f336521b332c1681b933f6cb9f3376673440d862a81565b61024d611011565b600061046982611055565b92915050565b60606003805461047e90611ddd565b80601f01602080910402602001604051908101604052809291908181526020018280546104aa90611ddd565b80156104f75780601f106104cc576101008083540402835291602001916104f7565b820191906000526020600020905b8154815290600101906020018083116104da57829003601f168201915b5050505050905090565b60003361050f81858561108a565b5060019392505050565b6105437f3c11d16cbaffd01df69ce1c404f6340ee057498f5f00246190ea54220576a84833610d11565b6105a95760405162461bcd60e51b815260206004820152602c60248201527f546574686572555344427269646765645a454432303a206d757374206861766560448201526b206275726e657220726f6c6560a01b60648201526084015b60405180910390fd5b6105b16111ae565b6105b96111f4565b6001600160a01b03831661062c5760405162461bcd60e51b815260206004820152603460248201527f546574686572555344427269646765645a454432303a2063616e6e6f74206275604482015273726e2066726f6d207a65726f206164647265737360601b60648201526084016105a0565b6000821161064c5760405162461bcd60e51b81526004016105a090611e17565b8161066c846001600160a01b031660009081526020819052604090205490565b10156106d65760405162461bcd60e51b815260206004820152603360248201527f546574686572555344427269646765645a454432303a20696e7375666669636960448201527232b73a103130b630b731b2903a3790313ab93760691b60648201526084016105a0565b6106e0838361124d565b826001600160a01b03167ffad31924d655455395c87544c8aa1ffdb5a7505a22a3c2e03f28003b6556a75f838360405161071b929190611e6b565b60405180910390a261072d6001600755565b505050565b60003361074085828561138b565b61074b8585856113ff565b506001949350505050565b600082815260056020526040902060010154610771816115ae565b61072d83836115bb565b6001600160a01b03811633146107eb5760405162461bcd60e51b815260206004820152602f60248201527f416363657373436f6e74726f6c3a2063616e206f6e6c792072656e6f756e636560448201526e103937b632b9903337b91039b2b63360891b60648201526084016105a0565b6107f582826115e0565b5050565b60003361050f81858561080c8383610fe6565b6108169190611ea2565b61108a565b6108457f65d7a28e3265b37a6474929f336521b332c1681b933f6cb9f3376673440d862a33610d11565b6108615760405162461bcd60e51b81526004016105a090611eb5565b610869611647565b565b6000610876816115ae565b60095460ff16156108dd5760405162461bcd60e51b815260206004820152602b60248201527f546574686572555344427269646765645a454432303a206d617820737570706c60448201526a1e481a5cc81b1bd8dad95960aa1b60648201526084016105a0565b6002548210156109455760405162461bcd60e51b815260206004820152602d60248201527f546574686572555344427269646765645a454432303a206e6577206d6178207360448201526c7570706c7920746f6f206c6f7760981b60648201526084016105a0565b600880549083905560408051828152602081018590527f44ecfc706d63e347851cfd40acfa6cf2e3a41faa3e8b460210c03938e84a91ad910160405180910390a1505050565b6109b57f65d7a28e3265b37a6474929f336521b332c1681b933f6cb9f3376673440d862a33610d11565b6109d15760405162461bcd60e51b81526004016105a090611eb5565b610869611699565b6109e16111ae565b6109e96111f4565b828114610a4e5760405162461bcd60e51b815260206004820152602d60248201527f546574686572555344427269646765645a454432303a20617272617973206c6560448201526c0dccee8d040dad2e6dac2e8c6d609b1b60648201526084016105a0565b82610aa75760405162461bcd60e51b815260206004820152602360248201527f546574686572555344427269646765645a454432303a20656d7074792061727260448201526261797360e81b60648201526084016105a0565b6064831115610b0b5760405162461bcd60e51b815260206004820152602a60248201527f546574686572555344427269646765645a454432303a20746f6f206d616e7920604482015269726563697069656e747360b01b60648201526084016105a0565b6000805b82811015610b4f57838382818110610b2957610b29611f01565b9050602002013582610b3b9190611ea2565b915080610b4781611f17565b915050610b0f565b5033600090815260208190526040902054811115610bc35760405162461bcd60e51b815260206004820152602b60248201527f546574686572555344427269646765645a454432303a20696e7375666669636960448201526a656e742062616c616e636560a81b60648201526084016105a0565b60005b84811015610cff576000868683818110610be257610be2611f01565b9050602002016020810190610bf79190611ce0565b6001600160a01b031603610c6c5760405162461bcd60e51b815260206004820152603660248201527f546574686572555344427269646765645a454432303a2063616e6e6f74207472604482015275616e7366657220746f207a65726f206164647265737360501b60648201526084016105a0565b6000848483818110610c8057610c80611f01565b9050602002013511610ca45760405162461bcd60e51b81526004016105a090611e17565b610ced33878784818110610cba57610cba611f01565b9050602002016020810190610ccf9190611ce0565b868685818110610ce157610ce1611f01565b905060200201356113ff565b80610cf781611f17565b915050610bc6565b5050610d0b6001600755565b50505050565b60009182526005602090815260408084206001600160a01b0393909316845291905290205460ff1690565b60606004805461047e90611ddd565b60003381610d598286610fe6565b905083811015610db95760405162461bcd60e51b815260206004820152602560248201527f45524332303a2064656372656173656420616c6c6f77616e63652062656c6f77604482015264207a65726f60d81b60648201526084016105a0565b61074b828686840361108a565b60003361050f8185856113ff565b610dfe7f9f2df0fed2c77648de5860a4cc508cd0818c85b8b8a1ab4ceeef8d981c8956a633610d11565b610e5f5760405162461bcd60e51b815260206004820152602c60248201527f546574686572555344427269646765645a454432303a206d757374206861766560448201526b206d696e74657220726f6c6560a01b60648201526084016105a0565b610e676111ae565b610e6f6111f4565b6001600160a01b038316610ee05760405162461bcd60e51b815260206004820152603260248201527f546574686572555344427269646765645a454432303a2063616e6e6f74206d696044820152716e7420746f207a65726f206164647265737360701b60648201526084016105a0565b60008211610f005760405162461bcd60e51b81526004016105a090611e17565b60085482610f0d60025490565b610f179190611ea2565b1115610f7c5760405162461bcd60e51b815260206004820152602e60248201527f546574686572555344427269646765645a454432303a20776f756c642065786360448201526d656564206d617820737570706c7960901b60648201526084016105a0565b610f8683836116d6565b826001600160a01b03167f9d89e36eadf856db0ad9ffb5a569e07f95634dddd9501141ecf04820484ad0dc838360405161071b929190611e6b565b600082815260056020526040902060010154610fdc816115ae565b61072d83836117a1565b6001600160a01b03918216600090815260016020908152604080832093909416825291909152205490565b600061101c816115ae565b6009805460ff191660011790556040517fde7c7383697b743598867d72e1955dabf62f0bfc4494a64b1096f6579e8604f190600090a150565b60006001600160e01b03198216637965db0b60e01b148061046957506301ffc9a760e01b6001600160e01b0319831614610469565b6001600160a01b0383166110ec5760405162461bcd60e51b8152602060048201526024808201527f45524332303a20617070726f76652066726f6d20746865207a65726f206164646044820152637265737360e01b60648201526084016105a0565b6001600160a01b03821661114d5760405162461bcd60e51b815260206004820152602260248201527f45524332303a20617070726f766520746f20746865207a65726f206164647265604482015261737360f01b60648201526084016105a0565b6001600160a01b0383811660008181526001602090815260408083209487168084529482529182902085905590518481527f8c5be1e5ebec7d5bd14f71427d1e84f3dd0314c0f7b2291e5b200ac8c7c3b925910160405180910390a3505050565b60065460ff16156108695760405162461bcd60e51b815260206004820152601060248201526f14185d5cd8589b194e881c185d5cd95960821b60448201526064016105a0565b6002600754036112465760405162461bcd60e51b815260206004820152601f60248201527f5265656e7472616e637947756172643a207265656e7472616e742063616c6c0060448201526064016105a0565b6002600755565b6001600160a01b0382166112ad5760405162461bcd60e51b815260206004820152602160248201527f45524332303a206275726e2066726f6d20746865207a65726f206164647265736044820152607360f81b60648201526084016105a0565b6112b9826000836117c6565b6001600160a01b0382166000908152602081905260409020548181101561132d5760405162461bcd60e51b815260206004820152602260248201527f45524332303a206275726e20616d6f756e7420657863656564732062616c616e604482015261636560f01b60648201526084016105a0565b6001600160a01b0383166000818152602081815260408083208686039055600280548790039055518581529192917fddf252ad1be2c89b69c2b068fc378daa952ba7f163c4a11628f55a4df523b3ef910160405180910390a3505050565b60006113978484610fe6565b90506000198114610d0b57818110156113f25760405162461bcd60e51b815260206004820152601d60248201527f45524332303a20696e73756666696369656e7420616c6c6f77616e636500000060448201526064016105a0565b610d0b848484840361108a565b6001600160a01b0383166114635760405162461bcd60e51b815260206004820152602560248201527f45524332303a207472616e736665722066726f6d20746865207a65726f206164604482015264647265737360d81b60648201526084016105a0565b6001600160a01b0382166114c55760405162461bcd60e51b815260206004820152602360248201527f45524332303a207472616e7366657220746f20746865207a65726f206164647260448201526265737360e81b60648201526084016105a0565b6114d08383836117c6565b6001600160a01b038316600090815260208190526040902054818110156115485760405162461bcd60e51b815260206004820152602660248201527f45524332303a207472616e7366657220616d6f756e7420657863656564732062604482015265616c616e636560d01b60648201526084016105a0565b6001600160a01b03848116600081815260208181526040808320878703905593871680835291849020805487019055925185815290927fddf252ad1be2c89b69c2b068fc378daa952ba7f163c4a11628f55a4df523b3ef910160405180910390a3610d0b565b6115b881336117ce565b50565b6000828152600560205260409020600101546115d6816115ae565b61072d8383611827565b6115ea8282610d11565b156107f55760008281526005602090815260408083206001600160a01b0385168085529252808320805460ff1916905551339285917ff6391f5c32d9c69d2a47ea670b442974b53935d1edc7fd64eb21e047a839171b9190a45050565b61164f6118ad565b6006805460ff191690557f5db9ee0a495bf2e6ff9c91a7834c1ba4fdd244a5e8aa4e537bd38aeae4b073aa335b6040516001600160a01b03909116815260200160405180910390a1565b6116a16111ae565b6006805460ff191660011790557f62e78cea01bee320cd4e420270b5ea74000d11b0c9f74754ebdbfc544b05a25861167c3390565b6001600160a01b03821661172c5760405162461bcd60e51b815260206004820152601f60248201527f45524332303a206d696e7420746f20746865207a65726f20616464726573730060448201526064016105a0565b611738600083836117c6565b806002600082825461174a9190611ea2565b90915550506001600160a01b038216600081815260208181526040808320805486019055518481527fddf252ad1be2c89b69c2b068fc378daa952ba7f163c4a11628f55a4df523b3ef910160405180910390a35050565b6000828152600560205260409020600101546117bc816115ae565b61072d83836115e0565b61072d6111ae565b6117d88282610d11565b6107f5576117e5816118f6565b6117f0836020611908565b604051602001611801929190611f30565b60408051601f198184030181529082905262461bcd60e51b82526105a091600401611b25565b6118318282610d11565b6107f55760008281526005602090815260408083206001600160a01b03851684529091529020805460ff191660011790556118693390565b6001600160a01b0316816001600160a01b0316837f2f8788117e7eff1d82e926ec794901d17c78024a50270940304540a733656f0d60405160405180910390a45050565b60065460ff166108695760405162461bcd60e51b815260206004820152601460248201527314185d5cd8589b194e881b9bdd081c185d5cd95960621b60448201526064016105a0565b60606104696001600160a01b03831660145b60606000611917836002611fa5565b611922906002611ea2565b67ffffffffffffffff81111561193a5761193a611b7e565b6040519080825280601f01601f191660200182016040528015611964576020820181803683370190505b509050600360fc1b8160008151811061197f5761197f611f01565b60200101906001600160f81b031916908160001a905350600f60fb1b816001815181106119ae576119ae611f01565b60200101906001600160f81b031916908160001a90535060006119d2846002611fa5565b6119dd906001611ea2565b90505b6001811115611a55576f181899199a1a9b1b9c1cb0b131b232b360811b85600f1660108110611a1157611a11611f01565b1a60f81b828281518110611a2757611a27611f01565b60200101906001600160f81b031916908160001a90535060049490941c93611a4e81611fbc565b90506119e0565b508315611aa45760405162461bcd60e51b815260206004820181905260248201527f537472696e67733a20686578206c656e67746820696e73756666696369656e7460448201526064016105a0565b9392505050565b600060208284031215611abd57600080fd5b81356001600160e01b031981168114611aa457600080fd5b60005b83811015611af0578181015183820152602001611ad8565b50506000910152565b60008151808452611b11816020860160208601611ad5565b601f01601f19169290920160200192915050565b602081526000611aa46020830184611af9565b80356001600160a01b0381168114611b4f57600080fd5b919050565b60008060408385031215611b6757600080fd5b611b7083611b38565b946020939093013593505050565b634e487b7160e01b600052604160045260246000fd5b600080600060608486031215611ba957600080fd5b611bb284611b38565b925060208401359150604084013567ffffffffffffffff80821115611bd657600080fd5b818601915086601f830112611bea57600080fd5b813581811115611bfc57611bfc611b7e565b604051601f8201601f19908116603f01168101908382118183101715611c2457611c24611b7e565b81604052828152896020848701011115611c3d57600080fd5b8260208601602083013760006020848301015280955050505050509250925092565b600080600060608486031215611c7457600080fd5b611c7d84611b38565b9250611c8b60208501611b38565b9150604084013590509250925092565b600060208284031215611cad57600080fd5b5035919050565b60008060408385031215611cc757600080fd5b82359150611cd760208401611b38565b90509250929050565b600060208284031215611cf257600080fd5b611aa482611b38565b60008083601f840112611d0d57600080fd5b50813567ffffffffffffffff811115611d2557600080fd5b6020830191508360208260051b8501011115611d4057600080fd5b9250929050565b60008060008060408587031215611d5d57600080fd5b843567ffffffffffffffff80821115611d7557600080fd5b611d8188838901611cfb565b90965094506020870135915080821115611d9a57600080fd5b50611da787828801611cfb565b95989497509550505050565b60008060408385031215611dc657600080fd5b611dcf83611b38565b9150611cd760208401611b38565b600181811c90821680611df157607f821691505b602082108103611e1157634e487b7160e01b600052602260045260246000fd5b50919050565b60208082526034908201527f546574686572555344427269646765645a454432303a20616d6f756e74206d75604082015273073742062652067726561746572207468616e20360641b606082015260800190565b828152604060208201526000611e846040830184611af9565b949350505050565b634e487b7160e01b600052601160045260246000fd5b8082018082111561046957610469611e8c565b6020808252602c908201527f546574686572555344427269646765645a454432303a206d757374206861766560408201526b2070617573657220726f6c6560a01b606082015260800190565b634e487b7160e01b600052603260045260246000fd5b600060018201611f2957611f29611e8c565b5060010190565b7f416363657373436f6e74726f6c3a206163636f756e7420000000000000000000815260008351611f68816017850160208801611ad5565b7001034b99036b4b9b9b4b733903937b6329607d1b6017918401918201528351611f99816028840160208801611ad5565b01602801949350505050565b808202811582820484141761046957610469611e8c565b600081611fcb57611fcb611e8c565b50600019019056fea264697066735822122055cf5ff880106f061675c97b600a6c014cc40f70c54e3a80874e1d6efeb2c89064736f6c63430008140033",
  "linkReferences": {},
  "deployedLinkReferences": {}
}